{
  "address": "0x5496fAdF693cda845AAAc626B210D95A2141208E",
  "abi": [
    {
      "inputs": [
        {
          "internalType": "address",
          "name": "initialOwner",
          "type": "address"
        }
      ],
      "stateMutability": "nonpayable",
      "type": "constructor"
    },
    {
      "inputs": [
        {
          "internalType": "address",
          "name": "sender",
          "type": "address"
        },
        {
          "internalType": "uint256",
          "name": "tokenId",
          "type": "uint256"
        },
        {
          "internalType": "address",
          "name": "owner",
          "type": "address"
        }
      ],
      "name": "ERC721IncorrectOwner",
      "type": "error"
    },
    {
      "inputs": [
        {
          "internalType": "address",
          "name": "operator",
          "type": "address"
        },
        {
          "internalType": "uint256",
          "name": "tokenId",
          "type": "uint256"
        }
      ],
      "name": "ERC721InsufficientApproval",
      "type": "error"
    },
    {
      "inputs": [
        {
          "internalType": "address",
          "name": "approver",
          "type": "address"
        }
      ],
      "name": "ERC721InvalidApprover",
      "type": "error"
    },
    {
      "inputs": [
        {
          "internalType": "address",
          "name": "operator",
          "type": "address"
        }
      ],
      "name": "ERC721InvalidOperator",
      "type": "error"
    },
    {
      "inputs": [
        {
          "internalType": "address",
          "name": "owner",
          "type": "address"
        }
      ],
      "name": "ERC721InvalidOwner",
      "type": "error"
    },
    {
      "inputs": [
        {
          "internalType": "address",
          "name": "receiver",
          "type": "address"
        }
      ],
      "name": "ERC721InvalidReceiver",
      "type": "error"
    },
    {
      "inputs": [
        {
          "internalType": "address",
          "name": "sender",
          "type": "address"
        }
      ],
      "name": "ERC721InvalidSender",
      "type": "error"
    },
    {
      "inputs": [
        {
          "internalType": "uint256",
          "name": "tokenId",
          "type": "uint256"
        }
      ],
      "name": "ERC721NonexistentToken",
      "type": "error"
    },
    {
      "inputs": [
        {
          "internalType": "address",
          "name": "owner",
          "type": "address"
        }
      ],
      "name": "OwnableInvalidOwner",
      "type": "error"
    },
    {
      "inputs": [
        {
          "internalType": "address",
          "name": "account",
          "type": "address"
        }
      ],
      "name": "OwnableUnauthorizedAccount",
      "type": "error"
    },
    {
      "anonymous": false,
      "inputs": [
        {
          "indexed": true,
          "internalType": "address",
          "name": "owner",
          "type": "address"
        },
        {
          "indexed": true,
          "internalType": "address",
          "name": "approved",
          "type": "address"
        },
        {
          "indexed": true,
          "internalType": "uint256",
          "name": "tokenId",
          "type": "uint256"
        }
      ],
      "name": "Approval",
      "type": "event"
    },
    {
      "anonymous": false,
      "inputs": [
        {
          "indexed": true,
          "internalType": "address",
          "name": "owner",
          "type": "address"
        },
        {
          "indexed": true,
          "internalType": "address",
          "name": "operator",
          "type": "address"
        },
        {
          "indexed": false,
          "internalType": "bool",
          "name": "approved",
          "type": "bool"
        }
      ],
      "name": "ApprovalForAll",
      "type": "event"
    },
    {
      "anonymous": false,
      "inputs": [
        {
          "indexed": true,
          "internalType": "address",
          "name": "previousOwner",
          "type": "address"
        },
        {
          "indexed": true,
          "internalType": "address",
          "name": "newOwner",
          "type": "address"
        }
      ],
      "name": "OwnershipTransferred",
      "type": "event"
    },
    {
      "anonymous": false,
      "inputs": [
        {
          "indexed": true,
          "internalType": "address",
          "name": "from",
          "type": "address"
        },
        {
          "indexed": true,
          "internalType": "address",
          "name": "to",
          "type": "address"
        },
        {
          "indexed": true,
          "internalType": "uint256",
          "name": "tokenId",
          "type": "uint256"
        }
      ],
      "name": "Transfer",
      "type": "event"
    },
    {
      "inputs": [
        {
          "internalType": "address",
          "name": "to",
          "type": "address"
        },
        {
          "internalType": "uint256",
          "name": "tokenId",
          "type": "uint256"
        }
      ],
      "name": "approve",
      "outputs": [],
      "stateMutability": "nonpayable",
      "type": "function"
    },
    {
      "inputs": [
        {
          "internalType": "uint256",
          "name": "_invoiceId",
          "type": "uint256"
        }
      ],
      "name": "approveInvoice",
      "outputs": [],
      "stateMutability": "nonpayable",
      "type": "function"
    },
    {
      "inputs": [
        {
          "internalType": "address",
          "name": "owner",
          "type": "address"
        }
      ],
      "name": "balanceOf",
      "outputs": [
        {
          "internalType": "uint256",
          "name": "",
          "type": "uint256"
        }
      ],
      "stateMutability": "view",
      "type": "function"
    },
    {
      "inputs": [
        {
          "internalType": "uint256",
          "name": "_invoiceId",
          "type": "uint256"
        }
      ],
      "name": "cancelInvoice",
      "outputs": [],
      "stateMutability": "nonpayable",
      "type": "function"
    },
    {
      "inputs": [
        {
          "internalType": "uint256",
          "name": "_invoiceId",
          "type": "uint256"
        }
      ],
      "name": "checkInvoiceStatus",
      "outputs": [],
      "stateMutability": "nonpayable",
      "type": "function"
    },
    {
      "inputs": [
        {
          "internalType": "address",
          "name": "_payer",
          "type": "address"
        },
        {
          "internalType": "uint256",
          "name": "_amount",
          "type": "uint256"
        },
        {
          "internalType": "string",
          "name": "_description",
          "type": "string"
        },
        {
          "internalType": "string",
          "name": "_currencyCode",
          "type": "string"
        },
        {
          "internalType": "uint256",
          "name": "_paymentTerms",
          "type": "uint256"
        }
      ],
      "name": "createInvoice",
      "outputs": [
        {
          "internalType": "uint256",
          "name": "",
          "type": "uint256"
        }
      ],
      "stateMutability": "nonpayable",
      "type": "function"
    },
    {
      "inputs": [
        {
          "internalType": "uint256",
          "name": "tokenId",
          "type": "uint256"
        }
      ],
      "name": "getApproved",
      "outputs": [
        {
          "internalType": "address",
          "name": "",
          "type": "address"
        }
      ],
      "stateMutability": "view",
      "type": "function"
    },
    {
      "inputs": [
        {
          "internalType": "uint256",
          "name": "_invoiceId",
          "type": "uint256"
        }
      ],
      "name": "getInvoice",
      "outputs": [
        {
          "components": [
            {
              "internalType": "uint256",
              "name": "invoiceId",
              "type": "uint256"
            },
            {
              "internalType": "address payable",
              "name": "payee",
              "type": "address"
            },
            {
              "internalType": "address",
              "name": "payer",
              "type": "address"
            },
            {
              "internalType": "uint256",
              "name": "amount",
              "type": "uint256"
            },
            {
              "internalType": "bool",
              "name": "paid",
              "type": "bool"
            },
            {
              "internalType": "string",
              "name": "description",
              "type": "string"
            },
            {
              "internalType": "string",
              "name": "currencyCode",
              "type": "string"
            },
            {
              "internalType": "uint256",
              "name": "paymentTerms",
              "type": "uint256"
            },
            {
              "internalType": "uint256",
              "name": "creationDate",
              "type": "uint256"
            },
            {
              "internalType": "uint256",
              "name": "dueDate",
              "type": "uint256"
            },
            {
              "internalType": "uint256",
              "name": "paidDate",
              "type": "uint256"
            },
            {
              "internalType": "enum InvoiceNFT.InvoiceStatus",
              "name": "status",
              "type": "uint8"
            },
            {
              "internalType": "string",
              "name": "blobId",
              "type": "string"
            }
          ],
          "internalType": "struct InvoiceNFT.Invoice",
          "name": "",
          "type": "tuple"
        }
      ],
      "stateMutability": "view",
      "type": "function"
    },
    {
      "inputs": [
        {
          "internalType": "uint256",
          "name": "_invoiceId",
          "type": "uint256"
        }
      ],
      "name": "getInvoiceStatus",
      "outputs": [
        {
          "internalType": "string",
          "name": "",
          "type": "string"
        }
      ],
      "stateMutability": "view",
      "type": "function"
    },
    {
      "inputs": [
        {
          "internalType": "address",
          "name": "_wallet",
          "type": "address"
        }
      ],
      "name": "getPayableInvoicesFor",
      "outputs": [
        {
          "components": [
            {
              "internalType": "uint256",
              "name": "invoiceId",
              "type": "uint256"
            },
            {
              "internalType": "address payable",
              "name": "payee",
              "type": "address"
            },
            {
              "internalType": "address",
              "name": "payer",
              "type": "address"
            },
            {
              "internalType": "uint256",
              "name": "amount",
              "type": "uint256"
            },
            {
              "internalType": "bool",
              "name": "paid",
              "type": "bool"
            },
            {
              "internalType": "string",
              "name": "description",
              "type": "string"
            },
            {
              "internalType": "string",
              "name": "currencyCode",
              "type": "string"
            },
            {
              "internalType": "uint256",
              "name": "paymentTerms",
              "type": "uint256"
            },
            {
              "internalType": "uint256",
              "name": "creationDate",
              "type": "uint256"
            },
            {
              "internalType": "uint256",
              "name": "dueDate",
              "type": "uint256"
            },
            {
              "internalType": "uint256",
              "name": "paidDate",
              "type": "uint256"
            },
            {
              "internalType": "enum InvoiceNFT.InvoiceStatus",
              "name": "status",
              "type": "uint8"
            },
            {
              "internalType": "string",
              "name": "blobId",
              "type": "string"
            }
          ],
          "internalType": "struct InvoiceNFT.Invoice[]",
          "name": "",
          "type": "tuple[]"
        }
      ],
      "stateMutability": "view",
      "type": "function"
    },
    {
      "inputs": [
        {
          "internalType": "address",
          "name": "_wallet",
          "type": "address"
        }
      ],
      "name": "getPayablesAndReceivablesFor",
      "outputs": [
        {
          "components": [
            {
              "internalType": "uint256",
              "name": "invoiceId",
              "type": "uint256"
            },
            {
              "internalType": "address payable",
              "name": "payee",
              "type": "address"
            },
            {
              "internalType": "address",
              "name": "payer",
              "type": "address"
            },
            {
              "internalType": "uint256",
              "name": "amount",
              "type": "uint256"
            },
            {
              "internalType": "bool",
              "name": "paid",
              "type": "bool"
            },
            {
              "internalType": "string",
              "name": "description",
              "type": "string"
            },
            {
              "internalType": "string",
              "name": "currencyCode",
              "type": "string"
            },
            {
              "internalType": "uint256",
              "name": "paymentTerms",
              "type": "uint256"
            },
            {
              "internalType": "uint256",
              "name": "creationDate",
              "type": "uint256"
            },
            {
              "internalType": "uint256",
              "name": "dueDate",
              "type": "uint256"
            },
            {
              "internalType": "uint256",
              "name": "paidDate",
              "type": "uint256"
            },
            {
              "internalType": "enum InvoiceNFT.InvoiceStatus",
              "name": "status",
              "type": "uint8"
            },
            {
              "internalType": "string",
              "name": "blobId",
              "type": "string"
            }
          ],
          "internalType": "struct InvoiceNFT.Invoice[]",
          "name": "payables",
          "type": "tuple[]"
        },
        {
          "components": [
            {
              "internalType": "uint256",
              "name": "invoiceId",
              "type": "uint256"
            },
            {
              "internalType": "address payable",
              "name": "payee",
              "type": "address"
            },
            {
              "internalType": "address",
              "name": "payer",
              "type": "address"
            },
            {
              "internalType": "uint256",
              "name": "amount",
              "type": "uint256"
            },
            {
              "internalType": "bool",
              "name": "paid",
              "type": "bool"
            },
            {
              "internalType": "string",
              "name": "description",
              "type": "string"
            },
            {
              "internalType": "string",
              "name": "currencyCode",
              "type": "string"
            },
            {
              "internalType": "uint256",
              "name": "paymentTerms",
              "type": "uint256"
            },
            {
              "internalType": "uint256",
              "name": "creationDate",
              "type": "uint256"
            },
            {
              "internalType": "uint256",
              "name": "dueDate",
              "type": "uint256"
            },
            {
              "internalType": "uint256",
              "name": "paidDate",
              "type": "uint256"
            },
            {
              "internalType": "enum InvoiceNFT.InvoiceStatus",
              "name": "status",
              "type": "uint8"
            },
            {
              "internalType": "string",
              "name": "blobId",
              "type": "string"
            }
          ],
          "internalType": "struct InvoiceNFT.Invoice[]",
          "name": "receivables",
          "type": "tuple[]"
        }
      ],
      "stateMutability": "view",
      "type": "function"
    },
    {
      "inputs": [
        {
          "internalType": "address",
          "name": "_wallet",
          "type": "address"
        }
      ],
      "name": "getReceivableInvoicesFor",
      "outputs": [
        {
          "components": [
            {
              "internalType": "uint256",
              "name": "invoiceId",
              "type": "uint256"
            },
            {
              "internalType": "address payable",
              "name": "payee",
              "type": "address"
            },
            {
              "internalType": "address",
              "name": "payer",
              "type": "address"
            },
            {
              "internalType": "uint256",
              "name": "amount",
              "type": "uint256"
            },
            {
              "internalType": "bool",
              "name": "paid",
              "type": "bool"
            },
            {
              "internalType": "string",
              "name": "description",
              "type": "string"
            },
            {
              "internalType": "string",
              "name": "currencyCode",
              "type": "string"
            },
            {
              "internalType": "uint256",
              "name": "paymentTerms",
              "type": "uint256"
            },
            {
              "internalType": "uint256",
              "name": "creationDate",
              "type": "uint256"
            },
            {
              "internalType": "uint256",
              "name": "dueDate",
              "type": "uint256"
            },
            {
              "internalType": "uint256",
              "name": "paidDate",
              "type": "uint256"
            },
            {
              "internalType": "enum InvoiceNFT.InvoiceStatus",
              "name": "status",
              "type": "uint8"
            },
            {
              "internalType": "string",
              "name": "blobId",
              "type": "string"
            }
          ],
          "internalType": "struct InvoiceNFT.Invoice[]",
          "name": "",
          "type": "tuple[]"
        }
      ],
      "stateMutability": "view",
      "type": "function"
    },
    {
      "inputs": [
        {
          "internalType": "uint256",
          "name": "",
          "type": "uint256"
        }
      ],
      "name": "invoices",
      "outputs": [
        {
          "internalType": "uint256",
          "name": "invoiceId",
          "type": "uint256"
        },
        {
          "internalType": "address payable",
          "name": "payee",
          "type": "address"
        },
        {
          "internalType": "address",
          "name": "payer",
          "type": "address"
        },
        {
          "internalType": "uint256",
          "name": "amount",
          "type": "uint256"
        },
        {
          "internalType": "bool",
          "name": "paid",
          "type": "bool"
        },
        {
          "internalType": "string",
          "name": "description",
          "type": "string"
        },
        {
          "internalType": "string",
          "name": "currencyCode",
          "type": "string"
        },
        {
          "internalType": "uint256",
          "name": "paymentTerms",
          "type": "uint256"
        },
        {
          "internalType": "uint256",
          "name": "creationDate",
          "type": "uint256"
        },
        {
          "internalType": "uint256",
          "name": "dueDate",
          "type": "uint256"
        },
        {
          "internalType": "uint256",
          "name": "paidDate",
          "type": "uint256"
        },
        {
          "internalType": "enum InvoiceNFT.InvoiceStatus",
          "name": "status",
          "type": "uint8"
        },
        {
          "internalType": "string",
          "name": "blobId",
          "type": "string"
        }
      ],
      "stateMutability": "view",
      "type": "function"
    },
    {
      "inputs": [
        {
          "internalType": "address",
          "name": "owner",
          "type": "address"
        },
        {
          "internalType": "address",
          "name": "operator",
          "type": "address"
        }
      ],
      "name": "isApprovedForAll",
      "outputs": [
        {
          "internalType": "bool",
          "name": "",
          "type": "bool"
        }
      ],
      "stateMutability": "view",
      "type": "function"
    },
    {
      "inputs": [
        {
          "internalType": "uint256",
          "name": "_invoiceId",
          "type": "uint256"
        }
      ],
      "name": "isInvoiceOverdue",
      "outputs": [
        {
          "internalType": "bool",
          "name": "",
          "type": "bool"
        }
      ],
      "stateMutability": "view",
      "type": "function"
    },
    {
      "inputs": [],
      "name": "name",
      "outputs": [
        {
          "internalType": "string",
          "name": "",
          "type": "string"
        }
      ],
      "stateMutability": "view",
      "type": "function"
    },
    {
      "inputs": [],
      "name": "owner",
      "outputs": [
        {
          "internalType": "address",
          "name": "",
          "type": "address"
        }
      ],
      "stateMutability": "view",
      "type": "function"
    },
    {
      "inputs": [
        {
          "internalType": "uint256",
          "name": "tokenId",
          "type": "uint256"
        }
      ],
      "name": "ownerOf",
      "outputs": [
        {
          "internalType": "address",
          "name": "",
          "type": "address"
        }
      ],
      "stateMutability": "view",
      "type": "function"
    },
    {
      "inputs": [
        {
          "internalType": "uint256",
          "name": "_invoiceId",
          "type": "uint256"
        }
      ],
      "name": "payInvoice",
      "outputs": [],
      "stateMutability": "payable",
      "type": "function"
    },
    {
      "inputs": [
        {
          "internalType": "uint256",
          "name": "_invoiceId",
          "type": "uint256"
        }
      ],
      "name": "rejectInvoice",
      "outputs": [],
      "stateMutability": "nonpayable",
      "type": "function"
    },
    {
      "inputs": [],
      "name": "renounceOwnership",
      "outputs": [],
      "stateMutability": "nonpayable",
      "type": "function"
    },
    {
      "inputs": [
        {
          "internalType": "address",
          "name": "from",
          "type": "address"
        },
        {
          "internalType": "address",
          "name": "to",
          "type": "address"
        },
        {
          "internalType": "uint256",
          "name": "tokenId",
          "type": "uint256"
        }
      ],
      "name": "safeTransferFrom",
      "outputs": [],
      "stateMutability": "nonpayable",
      "type": "function"
    },
    {
      "inputs": [
        {
          "internalType": "address",
          "name": "from",
          "type": "address"
        },
        {
          "internalType": "address",
          "name": "to",
          "type": "address"
        },
        {
          "internalType": "uint256",
          "name": "tokenId",
          "type": "uint256"
        },
        {
          "internalType": "bytes",
          "name": "data",
          "type": "bytes"
        }
      ],
      "name": "safeTransferFrom",
      "outputs": [],
      "stateMutability": "nonpayable",
      "type": "function"
    },
    {
      "inputs": [
        {
          "internalType": "address",
          "name": "operator",
          "type": "address"
        },
        {
          "internalType": "bool",
          "name": "approved",
          "type": "bool"
        }
      ],
      "name": "setApprovalForAll",
      "outputs": [],
      "stateMutability": "nonpayable",
      "type": "function"
    },
    {
      "inputs": [
        {
          "internalType": "uint256",
          "name": "_invoiceId",
          "type": "uint256"
        },
        {
          "internalType": "string",
          "name": "_blobId",
          "type": "string"
        }
      ],
      "name": "setBlobId",
      "outputs": [],
      "stateMutability": "nonpayable",
      "type": "function"
    },
    {
      "inputs": [
        {
          "internalType": "bytes4",
          "name": "interfaceId",
          "type": "bytes4"
        }
      ],
      "name": "supportsInterface",
      "outputs": [
        {
          "internalType": "bool",
          "name": "",
          "type": "bool"
        }
      ],
      "stateMutability": "view",
      "type": "function"
    },
    {
      "inputs": [],
      "name": "symbol",
      "outputs": [
        {
          "internalType": "string",
          "name": "",
          "type": "string"
        }
      ],
      "stateMutability": "view",
      "type": "function"
    },
    {
      "inputs": [
        {
          "internalType": "uint256",
          "name": "_invoiceId",
          "type": "uint256"
        }
      ],
      "name": "tokenURI",
      "outputs": [
        {
          "internalType": "string",
          "name": "",
          "type": "string"
        }
      ],
      "stateMutability": "view",
      "type": "function"
    },
    {
      "inputs": [
        {
          "internalType": "address",
          "name": "from",
          "type": "address"
        },
        {
          "internalType": "address",
          "name": "to",
          "type": "address"
        },
        {
          "internalType": "uint256",
          "name": "tokenId",
          "type": "uint256"
        }
      ],
      "name": "transferFrom",
      "outputs": [],
      "stateMutability": "nonpayable",
      "type": "function"
    },
    {
      "inputs": [
        {
          "internalType": "address",
          "name": "_to",
          "type": "address"
        },
        {
          "internalType": "uint256",
          "name": "_invoiceId",
          "type": "uint256"
        }
      ],
      "name": "transferInvoice",
      "outputs": [],
      "stateMutability": "nonpayable",
      "type": "function"
    },
    {
      "inputs": [
        {
          "internalType": "address",
          "name": "newOwner",
          "type": "address"
        }
      ],
      "name": "transferOwnership",
      "outputs": [],
      "stateMutability": "nonpayable",
      "type": "function"
    }
  ],
  "transactionHash": "0x1a2b1ab7974ac867b078b09b26d26102e8b49390736519eb5871016c13f9e29b",
  "args": [
    "0x4C3fbd96888A2A6912eF2db5f1747A2C59b7821C"
  ],
  "numDeployments": 2,
  "solcInputHash": "e8e442b703ead34b275f2601f3e375ff",
  "bytecode": "0x60806040523480156200001157600080fd5b50604051620037a5380380620037a583398101604081905262000034916200012b565b806040518060400160405280600a815260200169125b9d9bda58d953919560b21b8152506040518060400160405280600381526020016224a72b60e91b815250816000908162000085919062000202565b50600162000094828262000202565b5050506001600160a01b038116620000c657604051631e4fbdf760e01b81526000600482015260240160405180910390fd5b620000d181620000d9565b5050620002ce565b600680546001600160a01b038381166001600160a01b0319831681179093556040519116919082907f8be0079c531659141344cd1fd0a4f28419497f9722a3daafe3b4186f6b6457e090600090a35050565b6000602082840312156200013e57600080fd5b81516001600160a01b03811681146200015657600080fd5b9392505050565b634e487b7160e01b600052604160045260246000fd5b600181811c908216806200018857607f821691505b602082108103620001a957634e487b7160e01b600052602260045260246000fd5b50919050565b601f821115620001fd57600081815260208120601f850160051c81016020861015620001d85750805b601f850160051c820191505b81811015620001f957828155600101620001e4565b5050505b505050565b81516001600160401b038111156200021e576200021e6200015d565b62000236816200022f845462000173565b84620001af565b602080601f8311600181146200026e5760008415620002555750858301515b600019600386901b1c1916600185901b178555620001f9565b600085815260208120601f198616915b828110156200029f578886015182559484019460019091019084016200027e565b5085821015620002be5787850151600019600388901b60f8161c191681555b5050505050600190811b01905550565b6134c780620002de6000396000f3fe6080604052600436106101d85760003560e01c80636352211e11610102578063ac60a6cd11610095578063da9c273d11610064578063da9c273d146105cb578063e985e9c5146105eb578063f2fde38b1461060b578063f38024581461062b57600080fd5b8063ac60a6cd14610525578063b32413b714610538578063b88d4fde14610558578063c87b56dd1461057857600080fd5b8063715018a6116100d1578063715018a6146104bd5780638da5cb5b146104d257806395d89b41146104f0578063a22cb4651461050557600080fd5b80636352211e146104305780636c36c30c146104505780636d9b2ace1461047057806370a082311461049d57600080fd5b806323b872dd1161017a5780633a23cc0a116101495780633a23cc0a1461038a57806342842e0e146103b757806348fe9a8f146103d75780634e6d1405146103f757600080fd5b806323b872dd146102ee5780632a9350911461030e578063346c728c1461033c578063373db7f91461036a57600080fd5b8063095ea7b3116101b6578063095ea7b31461026c5780630f9a715e1461028e578063178c5b52146102ae5780631b0cf087146102ce57600080fd5b806301ffc9a7146101dd57806306fdde0314610212578063081812fc14610234575b600080fd5b3480156101e957600080fd5b506101fd6101f8366004612c18565b61064b565b60405190151581526020015b60405180910390f35b34801561021e57600080fd5b5061022761069d565b6040516102099190612c7b565b34801561024057600080fd5b5061025461024f366004612c8e565b61072f565b6040516001600160a01b039091168152602001610209565b34801561027857600080fd5b5061028c610287366004612cc3565b610758565b005b34801561029a57600080fd5b5061028c6102a9366004612c8e565b610767565b3480156102ba57600080fd5b506102276102c9366004612c8e565b61086d565b3480156102da57600080fd5b5061028c6102e9366004612c8e565b61093b565b3480156102fa57600080fd5b5061028c610309366004612ced565b6109b5565b34801561031a57600080fd5b5061032e610329366004612d29565b610a40565b604051610209929190612eca565b34801561034857600080fd5b5061035c610357366004612fa4565b610ec0565b604051908152602001610209565b34801561037657600080fd5b506101fd610385366004612c8e565b6111a4565b34801561039657600080fd5b506103aa6103a5366004612c8e565b6111d1565b604051610209919061302a565b3480156103c357600080fd5b5061028c6103d2366004612ced565b6114aa565b3480156103e357600080fd5b5061028c6103f236600461303d565b6114c5565b34801561040357600080fd5b50610417610412366004612c8e565b611591565b6040516102099d9c9b9a99989796959493929190613084565b34801561043c57600080fd5b5061025461044b366004612c8e565b6117a9565b34801561045c57600080fd5b5061028c61046b366004612cc3565b6117b4565b34801561047c57600080fd5b5061049061048b366004612d29565b61181f565b6040516102099190613130565b3480156104a957600080fd5b5061035c6104b8366004612d29565b611bea565b3480156104c957600080fd5b5061028c611c32565b3480156104de57600080fd5b506006546001600160a01b0316610254565b3480156104fc57600080fd5b50610227611c46565b34801561051157600080fd5b5061028c610520366004613143565b611c55565b61028c610533366004612c8e565b611c60565b34801561054457600080fd5b5061028c610553366004612c8e565b611e43565b34801561056457600080fd5b5061028c61057336600461317f565b611f29565b34801561058457600080fd5b50610227610593366004612c8e565b506040805180820190915260208082527f68747470733a2f2f6d792d696e766f6963652d6d657461646174612e636f6d2f9082015290565b3480156105d757600080fd5b5061028c6105e6366004612c8e565b611f41565b3480156105f757600080fd5b506101fd6106063660046131fb565b612082565b34801561061757600080fd5b5061028c610626366004612d29565b6120b0565b34801561063757600080fd5b50610490610646366004612d29565b6120ee565b60006001600160e01b031982166380ac58cd60e01b148061067c57506001600160e01b03198216635b5e139f60e01b145b8061069757506301ffc9a760e01b6001600160e01b03198316145b92915050565b6060600080546106ac9061322e565b80601f01602080910402602001604051908101604052809291908181526020018280546106d89061322e565b80156107255780601f106106fa57610100808354040283529160200191610725565b820191906000526020600020905b81548152906001019060200180831161070857829003601f168201915b5050505050905090565b600061073a826124af565b506000828152600460205260409020546001600160a01b0316610697565b6107638282336124e8565b5050565b600081815260086020526040902060028101546001600160a01b031633146107e65760405162461bcd60e51b815260206004820152602760248201527f4f6e6c79207468652070617965722063616e2072656a65637420746869732069604482015266373b37b4b1b29760c91b60648201526084015b60405180910390fd5b6000600b82015460ff16600481111561080157610801612d44565b1461081e5760405162461bcd60e51b81526004016107dd90613262565b6000816008015462093a8061083391906132b9565b905080421161085857600b820180546002919060ff19166001835b0217905550505050565b600b8201805460ff191660031790555b505050565b606081158061087d575060075482115b156108a25750506040805180820190915260048152634e6f6e6560e01b602082015290565b6000828152600860205260409020600481015460ff16156108df57505060408051808201909152600481526314185a5960e21b6020820152919050565b80600901544211156109105750506040805180820190915260078152664f76657264756560c81b6020820152919050565b505060408051808201909152600781526650656e64696e6760c81b6020820152919050565b50919050565b600081815260086020526040812090600b82015460ff16600481111561096357610963612d44565b146109805760405162461bcd60e51b81526004016107dd90613262565b6000816008015462093a8061099591906132b9565b90508042111561086857600b820180546003919060ff191660018361084e565b6001600160a01b0382166109df57604051633250574960e11b8152600060048201526024016107dd565b60006109ec8383336124f5565b9050836001600160a01b0316816001600160a01b031614610a3a576040516364283d7b60e01b81526001600160a01b03808616600483015260248201849052821660448201526064016107dd565b50505050565b6001600160a01b0381166000908152600960209081526040808320805482518185028101850190935280835260609485949093929190830182828015610aa557602002820191906000526020600020905b815481526020019060010190808311610a91575b505050505090506000815167ffffffffffffffff811115610ac857610ac8612ef8565b604051908082528060200260200182016040528015610b0157816020015b610aee612b75565b815260200190600190039081610ae65790505b5090506000825167ffffffffffffffff811115610b2057610b20612ef8565b604051908082528060200260200182016040528015610b5957816020015b610b46612b75565b815260200190600190039081610b3e5790505b50905060008060005b8551811015610eaf57600060086000888481518110610b8357610b836132cc565b602090810291909101810151825281810192909252604090810160002081516101a0810183528154815260018201546001600160a01b039081169482019490945260028201549093169183019190915260038101546060830152600481015460ff161515608083015260058101805460a084019190610c019061322e565b80601f0160208091040260200160405190810160405280929190818152602001828054610c2d9061322e565b8015610c7a5780601f10610c4f57610100808354040283529160200191610c7a565b820191906000526020600020905b815481529060010190602001808311610c5d57829003601f168201915b50505050508152602001600682018054610c939061322e565b80601f0160208091040260200160405190810160405280929190818152602001828054610cbf9061322e565b8015610d0c5780601f10610ce157610100808354040283529160200191610d0c565b820191906000526020600020905b815481529060010190602001808311610cef57829003601f168201915b5050509183525050600782015460208201526008820154604082015260098201546060820152600a8201546080820152600b82015460a09091019060ff166004811115610d5b57610d5b612d44565b6004811115610d6c57610d6c612d44565b8152602001600c82018054610d809061322e565b80601f0160208091040260200160405190810160405280929190818152602001828054610dac9061322e565b8015610df95780601f10610dce57610100808354040283529160200191610df9565b820191906000526020600020905b815481529060010190602001808311610ddc57829003601f168201915b5050505050815250509050896001600160a01b031681604001516001600160a01b031603610e525780868581518110610e3457610e346132cc565b60200260200101819052508380610e4a906132e2565b945050610e9c565b896001600160a01b031681602001516001600160a01b031603610e9c5780858481518110610e8257610e826132cc565b60200260200101819052508280610e98906132e2565b9350505b5080610ea7816132e2565b915050610b62565b509083528152909590945092505050565b60008160051480610ed1575081601e145b80610edc575081602d145b610f205760405162461bcd60e51b8152602060048201526015602482015274496e76616c6964207061796d656e74207465726d7360581b60448201526064016107dd565b336001600160a01b03871603610f845760405162461bcd60e51b8152602060048201526024808201527f43616e6e6f742063726561746520616e20696e766f69636520746f20796f757260448201526339b2b63360e11b60648201526084016107dd565b600160076000828254610f9791906132b9565b9091555050600754610fa987826125ee565b426000610fb985620151806132fb565b610fc390836132b9565b9050604051806101a00160405280848152602001336001600160a01b031681526020018a6001600160a01b03168152602001898152602001600015158152602001888152602001878152602001868152602001838152602001828152602001600081526020016000600481111561103c5761103c612d44565b81526040805160208082018352600080835293810191909152868352600881529181902083518155918301516001830180546001600160a01b03199081166001600160a01b039384161790915591840151600284018054909316911617905560608201516003820155608082015160048201805460ff191691151591909117905560a082015160058201906110d19082613358565b5060c082015160068201906110e69082613358565b5060e0820151600782015561010082015160088201556101208201516009820155610140820151600a820155610160820151600b8201805460ff1916600183600481111561113657611136612d44565b0217905550610180820151600c8201906111509082613358565b5050336000908152600960209081526040808320805460018181018355918552838520018890556001600160a01b038e16845290832080549182018155835291200184905550919250505095945050505050565b6000818152600860205260408120600481015460ff161580156111ca5750806009015442115b9392505050565b6111d9612b75565b6000821180156111eb57506007548211155b61122c5760405162461bcd60e51b8152602060048201526012602482015271125b9d985b1a59081a5b9d9bda58d948125160721b60448201526064016107dd565b60008281526008602090815260409182902082516101a0810184528154815260018201546001600160a01b039081169382019390935260028201549092169282019290925260038201546060820152600482015460ff161515608082015260058201805491929160a0840191906112a29061322e565b80601f01602080910402602001604051908101604052809291908181526020018280546112ce9061322e565b801561131b5780601f106112f05761010080835404028352916020019161131b565b820191906000526020600020905b8154815290600101906020018083116112fe57829003601f168201915b505050505081526020016006820180546113349061322e565b80601f01602080910402602001604051908101604052809291908181526020018280546113609061322e565b80156113ad5780601f10611382576101008083540402835291602001916113ad565b820191906000526020600020905b81548152906001019060200180831161139057829003601f168201915b5050509183525050600782015460208201526008820154604082015260098201546060820152600a8201546080820152600b82015460a09091019060ff1660048111156113fc576113fc612d44565b600481111561140d5761140d612d44565b8152602001600c820180546114219061322e565b80601f016020809104026020016040519081016040528092919081815260200182805461144d9061322e565b801561149a5780601f1061146f5761010080835404028352916020019161149a565b820191906000526020600020905b81548152906001019060200180831161147d57829003601f168201915b5050505050815250509050919050565b61086883838360405180602001604052806000815250611f29565b600082815260086020526040902060018101546001600160a01b031633146115395760405162461bcd60e51b815260206004820152602160248201527f4f6e6c79207468652070617965652063616e207365742074686520626c6f62496044820152601960fa1b60648201526084016107dd565b80546000036115835760405162461bcd60e51b8152602060048201526016602482015275125b9d9bda58d948191bd95cc81b9bdd08195e1a5cdd60521b60448201526064016107dd565b600c8101610a3a8382613358565b60086020526000908152604090208054600182015460028301546003840154600485015460058601805495966001600160a01b03958616969590941694929360ff909216926115df9061322e565b80601f016020809104026020016040519081016040528092919081815260200182805461160b9061322e565b80156116585780601f1061162d57610100808354040283529160200191611658565b820191906000526020600020905b81548152906001019060200180831161163b57829003601f168201915b50505050509080600601805461166d9061322e565b80601f01602080910402602001604051908101604052809291908181526020018280546116999061322e565b80156116e65780601f106116bb576101008083540402835291602001916116e6565b820191906000526020600020905b8154815290600101906020018083116116c957829003601f168201915b50505050509080600701549080600801549080600901549080600a01549080600b0160009054906101000a900460ff169080600c0180546117269061322e565b80601f01602080910402602001604051908101604052809291908181526020018280546117529061322e565b801561179f5780601f106117745761010080835404028352916020019161179f565b820191906000526020600020905b81548152906001019060200180831161178257829003601f168201915b505050505090508d565b6000610697826124af565b336117be826117a9565b6001600160a01b0316146118145760405162461bcd60e51b815260206004820152601f60248201527f596f7520646f6e2774206f776e207468697320696e766f696365204e46542e0060448201526064016107dd565b6107633383836114aa565b6001600160a01b038116600090815260096020908152604080832080548251818502810185019093528083526060949383018282801561187e57602002820191906000526020600020905b81548152602001906001019080831161186a575b505050505090506000815167ffffffffffffffff8111156118a1576118a1612ef8565b6040519080825280602002602001820160405280156118da57816020015b6118c7612b75565b8152602001906001900390816118bf5790505b5090506000805b8351811015611be057600060086000868481518110611902576119026132cc565b602090810291909101810151825281810192909252604090810160002081516101a0810183528154815260018201546001600160a01b039081169482019490945260028201549093169183019190915260038101546060830152600481015460ff161515608083015260058101805460a0840191906119809061322e565b80601f01602080910402602001604051908101604052809291908181526020018280546119ac9061322e565b80156119f95780601f106119ce576101008083540402835291602001916119f9565b820191906000526020600020905b8154815290600101906020018083116119dc57829003601f168201915b50505050508152602001600682018054611a129061322e565b80601f0160208091040260200160405190810160405280929190818152602001828054611a3e9061322e565b8015611a8b5780601f10611a6057610100808354040283529160200191611a8b565b820191906000526020600020905b815481529060010190602001808311611a6e57829003601f168201915b5050509183525050600782015460208201526008820154604082015260098201546060820152600a8201546080820152600b82015460a09091019060ff166004811115611ada57611ada612d44565b6004811115611aeb57611aeb612d44565b8152602001600c82018054611aff9061322e565b80601f0160208091040260200160405190810160405280929190818152602001828054611b2b9061322e565b8015611b785780601f10611b4d57610100808354040283529160200191611b78565b820191906000526020600020905b815481529060010190602001808311611b5b57829003601f168201915b5050505050815250509050866001600160a01b031681602001516001600160a01b031603611bcd5780848481518110611bb357611bb36132cc565b60200260200101819052508280611bc9906132e2565b9350505b5080611bd8816132e2565b9150506118e1565b5081529392505050565b60006001600160a01b038216611c16576040516322718ad960e21b8152600060048201526024016107dd565b506001600160a01b031660009081526003602052604090205490565b611c3a612653565b611c446000612680565b565b6060600180546106ac9061322e565b6107633383836126d2565b600081815260086020526040902060028101546001600160a01b03163314611cd65760405162461bcd60e51b8152602060048201526024808201527f4f6e6c79207468652070617965722063616e20706179207468697320696e766f60448201526334b1b29760e11b60648201526084016107dd565b600481015460ff1615611d235760405162461bcd60e51b815260206004820152601560248201527424b73b37b4b1b29030b63932b0b23c903830b4b21760591b60448201526064016107dd565b8060030154341015611d6f5760405162461bcd60e51b815260206004820152601560248201527424b739bab33334b1b4b2b73a103830bcb6b2b73a1760591b60448201526064016107dd565b6001600b82015460ff166004811115611d8a57611d8a612d44565b1480611dae57506003600b82015460ff166004811115611dac57611dac612d44565b145b611df25760405162461bcd60e51b815260206004820152601560248201527424b73b37b4b1b2903737ba1030b8383937bb32b21760591b60448201526064016107dd565b60048101805460ff1916600190811790915542600a8301558101546040516001600160a01b03909116903480156108fc02916000818181858888f19350505050158015610868573d6000803e3d6000fd5b600081815260086020526040902060028101546001600160a01b03163314611ebe5760405162461bcd60e51b815260206004820152602860248201527f4f6e6c79207468652070617965722063616e20617070726f766520746869732060448201526734b73b37b4b1b29760c11b60648201526084016107dd565b6000600b82015460ff166004811115611ed957611ed9612d44565b14611ef65760405162461bcd60e51b81526004016107dd90613262565b6000816008015462093a80611f0b91906132b9565b905080421161085857600b820180546001919060ff1916828061084e565b611f348484846109b5565b610a3a3385858585612771565b600081815260086020526040902060018101546001600160a01b03163314611fbb5760405162461bcd60e51b815260206004820152602760248201527f4f6e6c79207468652070617965652063616e2063616e63656c20746869732069604482015266373b37b4b1b29760c91b60648201526084016107dd565b6000600b82015460ff166004811115611fd657611fd6612d44565b1461203a5760405162461bcd60e51b815260206004820152602e60248201527f496e766f6963652063616e206f6e6c792062652063616e63656c6c656420696660448201526d1034ba13b9903832b73234b7339760911b60648201526084016107dd565b600b8101805460ff191660041790556120528261289c565b600181015461206a906001600160a01b0316836128d7565b6002810154610763906001600160a01b0316836128d7565b6001600160a01b03918216600090815260056020908152604080832093909416825291909152205460ff1690565b6120b8612653565b6001600160a01b0381166120e257604051631e4fbdf760e01b8152600060048201526024016107dd565b6120eb81612680565b50565b6001600160a01b038116600090815260096020908152604080832080548251818502810185019093528083526060949383018282801561214d57602002820191906000526020600020905b815481526020019060010190808311612139575b505050505090506000815167ffffffffffffffff81111561217057612170612ef8565b6040519080825280602002602001820160405280156121a957816020015b612196612b75565b81526020019060019003908161218e5790505b5090506000805b8351811015611be0576000600860008684815181106121d1576121d16132cc565b602090810291909101810151825281810192909252604090810160002081516101a0810183528154815260018201546001600160a01b039081169482019490945260028201549093169183019190915260038101546060830152600481015460ff161515608083015260058101805460a08401919061224f9061322e565b80601f016020809104026020016040519081016040528092919081815260200182805461227b9061322e565b80156122c85780601f1061229d576101008083540402835291602001916122c8565b820191906000526020600020905b8154815290600101906020018083116122ab57829003601f168201915b505050505081526020016006820180546122e19061322e565b80601f016020809104026020016040519081016040528092919081815260200182805461230d9061322e565b801561235a5780601f1061232f5761010080835404028352916020019161235a565b820191906000526020600020905b81548152906001019060200180831161233d57829003601f168201915b5050509183525050600782015460208201526008820154604082015260098201546060820152600a8201546080820152600b82015460a09091019060ff1660048111156123a9576123a9612d44565b60048111156123ba576123ba612d44565b8152602001600c820180546123ce9061322e565b80601f01602080910402602001604051908101604052809291908181526020018280546123fa9061322e565b80156124475780601f1061241c57610100808354040283529160200191612447565b820191906000526020600020905b81548152906001019060200180831161242a57829003601f168201915b5050505050815250509050866001600160a01b031681604001516001600160a01b03160361249c5780848481518110612482576124826132cc565b60200260200101819052508280612498906132e2565b9350505b50806124a7816132e2565b9150506121b0565b6000818152600260205260408120546001600160a01b03168061069757604051637e27328960e01b8152600481018490526024016107dd565b61086883838360016129a5565b6000828152600260205260408120546001600160a01b039081169083161561252257612522818486612aab565b6001600160a01b038116156125605761253f6000856000806129a5565b6001600160a01b038116600090815260036020526040902080546000190190555b6001600160a01b0385161561258f576001600160a01b0385166000908152600360205260409020805460010190555b60008481526002602052604080822080546001600160a01b0319166001600160a01b0389811691821790925591518793918516917fddf252ad1be2c89b69c2b068fc378daa952ba7f163c4a11628f55a4df523b3ef91a4949350505050565b6001600160a01b03821661261857604051633250574960e11b8152600060048201526024016107dd565b6000612626838360006124f5565b90506001600160a01b03811615610868576040516339e3563760e11b8152600060048201526024016107dd565b6006546001600160a01b03163314611c445760405163118cdaa760e01b81523360048201526024016107dd565b600680546001600160a01b038381166001600160a01b0319831681179093556040519116919082907f8be0079c531659141344cd1fd0a4f28419497f9722a3daafe3b4186f6b6457e090600090a35050565b6001600160a01b03821661270457604051630b61174360e31b81526001600160a01b03831660048201526024016107dd565b6001600160a01b03838116600081815260056020908152604080832094871680845294825291829020805460ff191686151590811790915591519182527f17307eab39ab6107e8899845ad3d59bd9653f200f220920489ca2b5937696c31910160405180910390a3505050565b6001600160a01b0383163b1561289557604051630a85bd0160e11b81526001600160a01b0384169063150b7a02906127b3908890889087908790600401613418565b6020604051808303816000875af19250505080156127ee575060408051601f3d908101601f191682019092526127eb9181019061344b565b60015b612857573d80801561281c576040519150601f19603f3d011682016040523d82523d6000602084013e612821565b606091505b50805160000361284f57604051633250574960e11b81526001600160a01b03851660048201526024016107dd565b805181602001fd5b6001600160e01b03198116630a85bd0160e11b1461289357604051633250574960e11b81526001600160a01b03851660048201526024016107dd565b505b5050505050565b60006128ab60008360006124f5565b90506001600160a01b03811661076357604051637e27328960e01b8152600481018390526024016107dd565b6001600160a01b0382166000908152600960205260408120905b8154811015610a3a578282828154811061290d5761290d6132cc565b906000526020600020015403612993578154829061292d90600190613468565b8154811061293d5761293d6132cc565b906000526020600020015482828154811061295a5761295a6132cc565b9060005260206000200181905550818054806129785761297861347b565b60019003818190600052602060002001600090559055610a3a565b8061299d816132e2565b9150506128f1565b80806129b957506001600160a01b03821615155b15612a7b5760006129c9846124af565b90506001600160a01b038316158015906129f55750826001600160a01b0316816001600160a01b031614155b8015612a085750612a068184612082565b155b15612a315760405163a9fbf51f60e01b81526001600160a01b03841660048201526024016107dd565b8115612a795783856001600160a01b0316826001600160a01b03167f8c5be1e5ebec7d5bd14f71427d1e84f3dd0314c0f7b2291e5b200ac8c7c3b92560405160405180910390a45b505b5050600090815260046020526040902080546001600160a01b0319166001600160a01b0392909216919091179055565b612ab6838383612b0f565b610868576001600160a01b038316612ae457604051637e27328960e01b8152600481018290526024016107dd565b60405163177e802f60e01b81526001600160a01b0383166004820152602481018290526044016107dd565b60006001600160a01b03831615801590612b6d5750826001600160a01b0316846001600160a01b03161480612b495750612b498484612082565b80612b6d57506000828152600460205260409020546001600160a01b038481169116145b949350505050565b604051806101a001604052806000815260200160006001600160a01b0316815260200160006001600160a01b031681526020016000815260200160001515815260200160608152602001606081526020016000815260200160008152602001600081526020016000815260200160006004811115612bf557612bf5612d44565b8152602001606081525090565b6001600160e01b0319811681146120eb57600080fd5b600060208284031215612c2a57600080fd5b81356111ca81612c02565b6000815180845260005b81811015612c5b57602081850181015186830182015201612c3f565b506000602082860101526020601f19601f83011685010191505092915050565b6020815260006111ca6020830184612c35565b600060208284031215612ca057600080fd5b5035919050565b80356001600160a01b0381168114612cbe57600080fd5b919050565b60008060408385031215612cd657600080fd5b612cdf83612ca7565b946020939093013593505050565b600080600060608486031215612d0257600080fd5b612d0b84612ca7565b9250612d1960208501612ca7565b9150604084013590509250925092565b600060208284031215612d3b57600080fd5b6111ca82612ca7565b634e487b7160e01b600052602160045260246000fd5b60058110612d7857634e487b7160e01b600052602160045260246000fd5b9052565b60006101a0825184526020830151612d9f60208601826001600160a01b03169052565b506040830151612dba60408601826001600160a01b03169052565b50606083015160608501526080830151612dd8608086018215159052565b5060a08301518160a0860152612df082860182612c35565b91505060c083015184820360c0860152612e0a8282612c35565b91505060e083015160e085015261010080840151818601525061012080840151818601525061014080840151818601525061016080840151612e4e82870182612d5a565b50506101808084015185830382870152612e688382612c35565b9695505050505050565b600082825180855260208086019550808260051b84010181860160005b84811015612ebd57601f19868403018952612eab838351612d7c565b98840198925090830190600101612e8f565b5090979650505050505050565b604081526000612edd6040830185612e72565b8281036020840152612eef8185612e72565b95945050505050565b634e487b7160e01b600052604160045260246000fd5b600067ffffffffffffffff80841115612f2957612f29612ef8565b604051601f8501601f19908116603f01168101908282118183101715612f5157612f51612ef8565b81604052809350858152868686011115612f6a57600080fd5b858560208301376000602087830101525050509392505050565b600082601f830112612f9557600080fd5b6111ca83833560208501612f0e565b600080600080600060a08688031215612fbc57600080fd5b612fc586612ca7565b945060208601359350604086013567ffffffffffffffff80821115612fe957600080fd5b612ff589838a01612f84565b9450606088013591508082111561300b57600080fd5b5061301888828901612f84565b95989497509295608001359392505050565b6020815260006111ca6020830184612d7c565b6000806040838503121561305057600080fd5b82359150602083013567ffffffffffffffff81111561306e57600080fd5b61307a85828601612f84565b9150509250929050565b8d81526001600160a01b038d811660208301528c16604082015260006101a08c60608401526130b7608084018d15159052565b8060a08401526130c98184018c612c35565b905082810360c08401526130dd818b612c35565b90508860e0840152876101008401528661012084015285610140840152613108610160840186612d5a565b82810361018084015261311b8185612c35565b9150509e9d5050505050505050505050505050565b6020815260006111ca6020830184612e72565b6000806040838503121561315657600080fd5b61315f83612ca7565b91506020830135801515811461317457600080fd5b809150509250929050565b6000806000806080858703121561319557600080fd5b61319e85612ca7565b93506131ac60208601612ca7565b925060408501359150606085013567ffffffffffffffff8111156131cf57600080fd5b8501601f810187136131e057600080fd5b6131ef87823560208401612f0e565b91505092959194509250565b6000806040838503121561320e57600080fd5b61321783612ca7565b915061322560208401612ca7565b90509250929050565b600181811c9082168061324257607f821691505b60208210810361093557634e487b7160e01b600052602260045260246000fd5b60208082526021908201527f496e766f696365206973206e6f7420696e2070656e64696e67207374617475736040820152601760f91b606082015260800190565b634e487b7160e01b600052601160045260246000fd5b80820180821115610697576106976132a3565b634e487b7160e01b600052603260045260246000fd5b6000600182016132f4576132f46132a3565b5060010190565b8082028115828204841417610697576106976132a3565b601f82111561086857600081815260208120601f850160051c810160208610156133395750805b601f850160051c820191505b8181101561289357828155600101613345565b815167ffffffffffffffff81111561337257613372612ef8565b61338681613380845461322e565b84613312565b602080601f8311600181146133bb57600084156133a35750858301515b600019600386901b1c1916600185901b178555612893565b600085815260208120601f198616915b828110156133ea578886015182559484019460019091019084016133cb565b50858210156134085787850151600019600388901b60f8161c191681555b5050505050600190811b01905550565b6001600160a01b0385811682528416602082015260408101839052608060608201819052600090612e6890830184612c35565b60006020828403121561345d57600080fd5b81516111ca81612c02565b81810381811115610697576106976132a3565b634e487b7160e01b600052603160045260246000fdfea2646970667358221220581a055db745dc30b99f4d791ecf552bf277f63b49cec0f9c740fc60ea0cd23c64736f6c63430008140033",
  "devdoc": {
    "errors": {
      "ERC721IncorrectOwner(address,uint256,address)": [
        {
          "details": "Indicates an error related to the ownership over a particular token. Used in transfers.",
          "params": {
            "owner": "Address of the current owner of a token.",
            "sender": "Address whose tokens are being transferred.",
            "tokenId": "Identifier number of a token."
          }
        }
      ],
      "ERC721InsufficientApproval(address,uint256)": [
        {
          "details": "Indicates a failure with the `operator`s approval. Used in transfers.",
          "params": {
            "operator": "Address that may be allowed to operate on tokens without being their owner.",
            "tokenId": "Identifier number of a token."
          }
        }
      ],
      "ERC721InvalidApprover(address)": [
        {
          "details": "Indicates a failure with the `approver` of a token to be approved. Used in approvals.",
          "params": {
            "approver": "Address initiating an approval operation."
          }
        }
      ],
      "ERC721InvalidOperator(address)": [
        {
          "details": "Indicates a failure with the `operator` to be approved. Used in approvals.",
          "params": {
            "operator": "Address that may be allowed to operate on tokens without being their owner."
          }
        }
      ],
      "ERC721InvalidOwner(address)": [
        {
          "details": "Indicates that an address can't be an owner. For example, `address(0)` is a forbidden owner in ERC-20. Used in balance queries.",
          "params": {
            "owner": "Address of the current owner of a token."
          }
        }
      ],
      "ERC721InvalidReceiver(address)": [
        {
          "details": "Indicates a failure with the token `receiver`. Used in transfers.",
          "params": {
            "receiver": "Address to which tokens are being transferred."
          }
        }
      ],
      "ERC721InvalidSender(address)": [
        {
          "details": "Indicates a failure with the token `sender`. Used in transfers.",
          "params": {
            "sender": "Address whose tokens are being transferred."
          }
        }
      ],
      "ERC721NonexistentToken(uint256)": [
        {
          "details": "Indicates a `tokenId` whose `owner` is the zero address.",
          "params": {
            "tokenId": "Identifier number of a token."
          }
        }
      ],
      "OwnableInvalidOwner(address)": [
        {
          "details": "The owner is not a valid owner account. (eg. `address(0)`)"
        }
      ],
      "OwnableUnauthorizedAccount(address)": [
        {
          "details": "The caller account is not authorized to perform an operation."
        }
      ]
    },
    "events": {
      "Approval(address,address,uint256)": {
        "details": "Emitted when `owner` enables `approved` to manage the `tokenId` token."
      },
      "ApprovalForAll(address,address,bool)": {
        "details": "Emitted when `owner` enables or disables (`approved`) `operator` to manage all of its assets."
      },
      "Transfer(address,address,uint256)": {
        "details": "Emitted when `tokenId` token is transferred from `from` to `to`."
      }
    },
    "kind": "dev",
    "methods": {
      "approve(address,uint256)": {
        "details": "See {IERC721-approve}."
      },
      "balanceOf(address)": {
        "details": "See {IERC721-balanceOf}."
      },
      "getApproved(uint256)": {
        "details": "See {IERC721-getApproved}."
      },
      "isApprovedForAll(address,address)": {
        "details": "See {IERC721-isApprovedForAll}."
      },
      "name()": {
        "details": "See {IERC721Metadata-name}."
      },
      "owner()": {
        "details": "Returns the address of the current owner."
      },
      "ownerOf(uint256)": {
        "details": "See {IERC721-ownerOf}."
      },
      "renounceOwnership()": {
        "details": "Leaves the contract without owner. It will not be possible to call `onlyOwner` functions. Can only be called by the current owner. NOTE: Renouncing ownership will leave the contract without an owner, thereby disabling any functionality that is only available to the owner."
      },
      "safeTransferFrom(address,address,uint256)": {
        "details": "See {IERC721-safeTransferFrom}."
      },
      "safeTransferFrom(address,address,uint256,bytes)": {
        "details": "See {IERC721-safeTransferFrom}."
      },
      "setApprovalForAll(address,bool)": {
        "details": "See {IERC721-setApprovalForAll}."
      },
      "supportsInterface(bytes4)": {
        "details": "See {IERC165-supportsInterface}."
      },
      "symbol()": {
        "details": "See {IERC721Metadata-symbol}."
      },
      "transferFrom(address,address,uint256)": {
        "details": "See {IERC721-transferFrom}."
      },
      "transferOwnership(address)": {
        "details": "Transfers ownership of the contract to a new account (`newOwner`). Can only be called by the current owner."
      }
    },
    "version": 1
  },
  "userdoc": {
    "kind": "user",
    "methods": {},
    "version": 1
  },
  "storageLayout": {
    "storage": [
      {
        "astId": 317,
        "contract": "contracts/InvoiceNFT.sol:InvoiceNFT",
        "label": "_name",
        "offset": 0,
        "slot": "0",
        "type": "t_string_storage"
      },
      {
        "astId": 319,
        "contract": "contracts/InvoiceNFT.sol:InvoiceNFT",
        "label": "_symbol",
        "offset": 0,
        "slot": "1",
        "type": "t_string_storage"
      },
      {
        "astId": 323,
        "contract": "contracts/InvoiceNFT.sol:InvoiceNFT",
        "label": "_owners",
        "offset": 0,
        "slot": "2",
        "type": "t_mapping(t_uint256,t_address)"
      },
      {
        "astId": 327,
        "contract": "contracts/InvoiceNFT.sol:InvoiceNFT",
        "label": "_balances",
        "offset": 0,
        "slot": "3",
        "type": "t_mapping(t_address,t_uint256)"
      },
      {
        "astId": 331,
        "contract": "contracts/InvoiceNFT.sol:InvoiceNFT",
        "label": "_tokenApprovals",
        "offset": 0,
        "slot": "4",
        "type": "t_mapping(t_uint256,t_address)"
      },
      {
        "astId": 337,
        "contract": "contracts/InvoiceNFT.sol:InvoiceNFT",
        "label": "_operatorApprovals",
        "offset": 0,
        "slot": "5",
        "type": "t_mapping(t_address,t_mapping(t_address,t_bool))"
      },
      {
        "astId": 8,
        "contract": "contracts/InvoiceNFT.sol:InvoiceNFT",
        "label": "_owner",
        "offset": 0,
        "slot": "6",
        "type": "t_address"
      },
      {
        "astId": 5444,
        "contract": "contracts/InvoiceNFT.sol:InvoiceNFT",
        "label": "_invoiceIds",
        "offset": 0,
        "slot": "7",
        "type": "t_uint256"
      },
      {
        "astId": 5483,
        "contract": "contracts/InvoiceNFT.sol:InvoiceNFT",
        "label": "invoices",
        "offset": 0,
        "slot": "8",
        "type": "t_mapping(t_uint256,t_struct(Invoice)5478_storage)"
      },
      {
        "astId": 5488,
        "contract": "contracts/InvoiceNFT.sol:InvoiceNFT",
        "label": "walletInvoices",
        "offset": 0,
        "slot": "9",
        "type": "t_mapping(t_address,t_array(t_uint256)dyn_storage)"
      }
    ],
    "types": {
      "t_address": {
        "encoding": "inplace",
        "label": "address",
        "numberOfBytes": "20"
      },
      "t_address_payable": {
        "encoding": "inplace",
        "label": "address payable",
        "numberOfBytes": "20"
      },
      "t_array(t_uint256)dyn_storage": {
        "base": "t_uint256",
        "encoding": "dynamic_array",
        "label": "uint256[]",
        "numberOfBytes": "32"
      },
      "t_bool": {
        "encoding": "inplace",
        "label": "bool",
        "numberOfBytes": "1"
      },
      "t_enum(InvoiceStatus)5450": {
        "encoding": "inplace",
        "label": "enum InvoiceNFT.InvoiceStatus",
        "numberOfBytes": "1"
      },
      "t_mapping(t_address,t_array(t_uint256)dyn_storage)": {
        "encoding": "mapping",
        "key": "t_address",
        "label": "mapping(address => uint256[])",
        "numberOfBytes": "32",
        "value": "t_array(t_uint256)dyn_storage"
      },
      "t_mapping(t_address,t_bool)": {
        "encoding": "mapping",
        "key": "t_address",
        "label": "mapping(address => bool)",
        "numberOfBytes": "32",
        "value": "t_bool"
      },
      "t_mapping(t_address,t_mapping(t_address,t_bool))": {
        "encoding": "mapping",
        "key": "t_address",
        "label": "mapping(address => mapping(address => bool))",
        "numberOfBytes": "32",
        "value": "t_mapping(t_address,t_bool)"
      },
      "t_mapping(t_address,t_uint256)": {
        "encoding": "mapping",
        "key": "t_address",
        "label": "mapping(address => uint256)",
        "numberOfBytes": "32",
        "value": "t_uint256"
      },
      "t_mapping(t_uint256,t_address)": {
        "encoding": "mapping",
        "key": "t_uint256",
        "label": "mapping(uint256 => address)",
        "numberOfBytes": "32",
        "value": "t_address"
      },
      "t_mapping(t_uint256,t_struct(Invoice)5478_storage)": {
        "encoding": "mapping",
        "key": "t_uint256",
        "label": "mapping(uint256 => struct InvoiceNFT.Invoice)",
        "numberOfBytes": "32",
        "value": "t_struct(Invoice)5478_storage"
      },
      "t_string_storage": {
        "encoding": "bytes",
        "label": "string",
        "numberOfBytes": "32"
      },
      "t_struct(Invoice)5478_storage": {
        "encoding": "inplace",
        "label": "struct InvoiceNFT.Invoice",
        "members": [
          {
            "astId": 5452,
            "contract": "contracts/InvoiceNFT.sol:InvoiceNFT",
            "label": "invoiceId",
            "offset": 0,
            "slot": "0",
            "type": "t_uint256"
          },
          {
            "astId": 5454,
            "contract": "contracts/InvoiceNFT.sol:InvoiceNFT",
            "label": "payee",
            "offset": 0,
            "slot": "1",
            "type": "t_address_payable"
          },
          {
            "astId": 5456,
            "contract": "contracts/InvoiceNFT.sol:InvoiceNFT",
            "label": "payer",
            "offset": 0,
            "slot": "2",
            "type": "t_address"
          },
          {
            "astId": 5458,
            "contract": "contracts/InvoiceNFT.sol:InvoiceNFT",
            "label": "amount",
            "offset": 0,
            "slot": "3",
            "type": "t_uint256"
          },
          {
            "astId": 5460,
            "contract": "contracts/InvoiceNFT.sol:InvoiceNFT",
            "label": "paid",
            "offset": 0,
            "slot": "4",
            "type": "t_bool"
          },
          {
            "astId": 5462,
            "contract": "contracts/InvoiceNFT.sol:InvoiceNFT",
            "label": "description",
            "offset": 0,
            "slot": "5",
            "type": "t_string_storage"
          },
          {
            "astId": 5464,
            "contract": "contracts/InvoiceNFT.sol:InvoiceNFT",
            "label": "currencyCode",
            "offset": 0,
            "slot": "6",
            "type": "t_string_storage"
          },
          {
            "astId": 5466,
            "contract": "contracts/InvoiceNFT.sol:InvoiceNFT",
            "label": "paymentTerms",
            "offset": 0,
            "slot": "7",
            "type": "t_uint256"
          },
          {
            "astId": 5468,
            "contract": "contracts/InvoiceNFT.sol:InvoiceNFT",
            "label": "creationDate",
            "offset": 0,
            "slot": "8",
            "type": "t_uint256"
          },
          {
            "astId": 5470,
            "contract": "contracts/InvoiceNFT.sol:InvoiceNFT",
            "label": "dueDate",
            "offset": 0,
            "slot": "9",
            "type": "t_uint256"
          },
          {
            "astId": 5472,
            "contract": "contracts/InvoiceNFT.sol:InvoiceNFT",
            "label": "paidDate",
            "offset": 0,
            "slot": "10",
            "type": "t_uint256"
          },
          {
            "astId": 5475,
            "contract": "contracts/InvoiceNFT.sol:InvoiceNFT",
            "label": "status",
            "offset": 0,
            "slot": "11",
            "type": "t_enum(InvoiceStatus)5450"
          },
          {
            "astId": 5477,
            "contract": "contracts/InvoiceNFT.sol:InvoiceNFT",
            "label": "blobId",
            "offset": 0,
            "slot": "12",
            "type": "t_string_storage"
          }
        ],
        "numberOfBytes": "416"
      },
      "t_uint256": {
        "encoding": "inplace",
        "label": "uint256",
        "numberOfBytes": "32"
      }
    }
  }
}