{
  "address": "0x0b4db15DA0157937A0D06a3c6772D31726fBdF7F",
  "abi": [
    {
      "inputs": [
        {
          "internalType": "address",
          "name": "initialOwner",
          "type": "address"
        }
      ],
      "stateMutability": "nonpayable",
      "type": "constructor"
    },
    {
      "inputs": [
        {
          "internalType": "address",
          "name": "sender",
          "type": "address"
        },
        {
          "internalType": "uint256",
          "name": "tokenId",
          "type": "uint256"
        },
        {
          "internalType": "address",
          "name": "owner",
          "type": "address"
        }
      ],
      "name": "ERC721IncorrectOwner",
      "type": "error"
    },
    {
      "inputs": [
        {
          "internalType": "address",
          "name": "operator",
          "type": "address"
        },
        {
          "internalType": "uint256",
          "name": "tokenId",
          "type": "uint256"
        }
      ],
      "name": "ERC721InsufficientApproval",
      "type": "error"
    },
    {
      "inputs": [
        {
          "internalType": "address",
          "name": "approver",
          "type": "address"
        }
      ],
      "name": "ERC721InvalidApprover",
      "type": "error"
    },
    {
      "inputs": [
        {
          "internalType": "address",
          "name": "operator",
          "type": "address"
        }
      ],
      "name": "ERC721InvalidOperator",
      "type": "error"
    },
    {
      "inputs": [
        {
          "internalType": "address",
          "name": "owner",
          "type": "address"
        }
      ],
      "name": "ERC721InvalidOwner",
      "type": "error"
    },
    {
      "inputs": [
        {
          "internalType": "address",
          "name": "receiver",
          "type": "address"
        }
      ],
      "name": "ERC721InvalidReceiver",
      "type": "error"
    },
    {
      "inputs": [
        {
          "internalType": "address",
          "name": "sender",
          "type": "address"
        }
      ],
      "name": "ERC721InvalidSender",
      "type": "error"
    },
    {
      "inputs": [
        {
          "internalType": "uint256",
          "name": "tokenId",
          "type": "uint256"
        }
      ],
      "name": "ERC721NonexistentToken",
      "type": "error"
    },
    {
      "inputs": [
        {
          "internalType": "address",
          "name": "owner",
          "type": "address"
        }
      ],
      "name": "OwnableInvalidOwner",
      "type": "error"
    },
    {
      "inputs": [
        {
          "internalType": "address",
          "name": "account",
          "type": "address"
        }
      ],
      "name": "OwnableUnauthorizedAccount",
      "type": "error"
    },
    {
      "anonymous": false,
      "inputs": [
        {
          "indexed": true,
          "internalType": "address",
          "name": "owner",
          "type": "address"
        },
        {
          "indexed": true,
          "internalType": "address",
          "name": "approved",
          "type": "address"
        },
        {
          "indexed": true,
          "internalType": "uint256",
          "name": "tokenId",
          "type": "uint256"
        }
      ],
      "name": "Approval",
      "type": "event"
    },
    {
      "anonymous": false,
      "inputs": [
        {
          "indexed": true,
          "internalType": "address",
          "name": "owner",
          "type": "address"
        },
        {
          "indexed": true,
          "internalType": "address",
          "name": "operator",
          "type": "address"
        },
        {
          "indexed": false,
          "internalType": "bool",
          "name": "approved",
          "type": "bool"
        }
      ],
      "name": "ApprovalForAll",
      "type": "event"
    },
    {
      "anonymous": false,
      "inputs": [
        {
          "indexed": true,
          "internalType": "address",
          "name": "previousOwner",
          "type": "address"
        },
        {
          "indexed": true,
          "internalType": "address",
          "name": "newOwner",
          "type": "address"
        }
      ],
      "name": "OwnershipTransferred",
      "type": "event"
    },
    {
      "anonymous": false,
      "inputs": [
        {
          "indexed": true,
          "internalType": "address",
          "name": "from",
          "type": "address"
        },
        {
          "indexed": true,
          "internalType": "address",
          "name": "to",
          "type": "address"
        },
        {
          "indexed": true,
          "internalType": "uint256",
          "name": "tokenId",
          "type": "uint256"
        }
      ],
      "name": "Transfer",
      "type": "event"
    },
    {
      "inputs": [
        {
          "internalType": "address",
          "name": "to",
          "type": "address"
        },
        {
          "internalType": "uint256",
          "name": "tokenId",
          "type": "uint256"
        }
      ],
      "name": "approve",
      "outputs": [],
      "stateMutability": "nonpayable",
      "type": "function"
    },
    {
      "inputs": [
        {
          "internalType": "uint256",
          "name": "_invoiceId",
          "type": "uint256"
        }
      ],
      "name": "approveInvoice",
      "outputs": [],
      "stateMutability": "nonpayable",
      "type": "function"
    },
    {
      "inputs": [
        {
          "internalType": "address",
          "name": "owner",
          "type": "address"
        }
      ],
      "name": "balanceOf",
      "outputs": [
        {
          "internalType": "uint256",
          "name": "",
          "type": "uint256"
        }
      ],
      "stateMutability": "view",
      "type": "function"
    },
    {
      "inputs": [
        {
          "internalType": "uint256",
          "name": "_invoiceId",
          "type": "uint256"
        }
      ],
      "name": "cancelInvoice",
      "outputs": [],
      "stateMutability": "nonpayable",
      "type": "function"
    },
    {
      "inputs": [
        {
          "internalType": "uint256",
          "name": "_invoiceId",
          "type": "uint256"
        }
      ],
      "name": "checkInvoiceStatus",
      "outputs": [],
      "stateMutability": "nonpayable",
      "type": "function"
    },
    {
      "inputs": [
        {
          "internalType": "address",
          "name": "_payer",
          "type": "address"
        },
        {
          "internalType": "uint256",
          "name": "_amount",
          "type": "uint256"
        },
        {
          "internalType": "string",
          "name": "_description",
          "type": "string"
        },
        {
          "internalType": "string",
          "name": "_currencyCode",
          "type": "string"
        },
        {
          "internalType": "uint256",
          "name": "_paymentTerms",
          "type": "uint256"
        }
      ],
      "name": "createInvoice",
      "outputs": [
        {
          "internalType": "uint256",
          "name": "",
          "type": "uint256"
        }
      ],
      "stateMutability": "nonpayable",
      "type": "function"
    },
    {
      "inputs": [
        {
          "internalType": "uint256",
          "name": "tokenId",
          "type": "uint256"
        }
      ],
      "name": "getApproved",
      "outputs": [
        {
          "internalType": "address",
          "name": "",
          "type": "address"
        }
      ],
      "stateMutability": "view",
      "type": "function"
    },
    {
      "inputs": [
        {
          "internalType": "uint256",
          "name": "_invoiceId",
          "type": "uint256"
        }
      ],
      "name": "getInvoice",
      "outputs": [
        {
          "components": [
            {
              "internalType": "address payable",
              "name": "payee",
              "type": "address"
            },
            {
              "internalType": "address",
              "name": "payer",
              "type": "address"
            },
            {
              "internalType": "uint256",
              "name": "amount",
              "type": "uint256"
            },
            {
              "internalType": "bool",
              "name": "paid",
              "type": "bool"
            },
            {
              "internalType": "string",
              "name": "description",
              "type": "string"
            },
            {
              "internalType": "string",
              "name": "currencyCode",
              "type": "string"
            },
            {
              "internalType": "uint256",
              "name": "paymentTerms",
              "type": "uint256"
            },
            {
              "internalType": "uint256",
              "name": "creationDate",
              "type": "uint256"
            },
            {
              "internalType": "uint256",
              "name": "dueDate",
              "type": "uint256"
            },
            {
              "internalType": "uint256",
              "name": "paidDate",
              "type": "uint256"
            },
            {
              "internalType": "enum InvoiceNFT.InvoiceStatus",
              "name": "status",
              "type": "uint8"
            }
          ],
          "internalType": "struct InvoiceNFT.Invoice",
          "name": "",
          "type": "tuple"
        }
      ],
      "stateMutability": "view",
      "type": "function"
    },
    {
      "inputs": [
        {
          "internalType": "uint256",
          "name": "_invoiceId",
          "type": "uint256"
        }
      ],
      "name": "getInvoiceStatus",
      "outputs": [
        {
          "internalType": "string",
          "name": "",
          "type": "string"
        }
      ],
      "stateMutability": "view",
      "type": "function"
    },
    {
      "inputs": [
        {
          "internalType": "address",
          "name": "_wallet",
          "type": "address"
        }
      ],
      "name": "getPayableInvoicesFor",
      "outputs": [
        {
          "components": [
            {
              "internalType": "address payable",
              "name": "payee",
              "type": "address"
            },
            {
              "internalType": "address",
              "name": "payer",
              "type": "address"
            },
            {
              "internalType": "uint256",
              "name": "amount",
              "type": "uint256"
            },
            {
              "internalType": "bool",
              "name": "paid",
              "type": "bool"
            },
            {
              "internalType": "string",
              "name": "description",
              "type": "string"
            },
            {
              "internalType": "string",
              "name": "currencyCode",
              "type": "string"
            },
            {
              "internalType": "uint256",
              "name": "paymentTerms",
              "type": "uint256"
            },
            {
              "internalType": "uint256",
              "name": "creationDate",
              "type": "uint256"
            },
            {
              "internalType": "uint256",
              "name": "dueDate",
              "type": "uint256"
            },
            {
              "internalType": "uint256",
              "name": "paidDate",
              "type": "uint256"
            },
            {
              "internalType": "enum InvoiceNFT.InvoiceStatus",
              "name": "status",
              "type": "uint8"
            }
          ],
          "internalType": "struct InvoiceNFT.Invoice[]",
          "name": "",
          "type": "tuple[]"
        }
      ],
      "stateMutability": "view",
      "type": "function"
    },
    {
      "inputs": [
        {
          "internalType": "address",
          "name": "_wallet",
          "type": "address"
        }
      ],
      "name": "getPayablesAndReceivablesFor",
      "outputs": [
        {
          "components": [
            {
              "internalType": "address payable",
              "name": "payee",
              "type": "address"
            },
            {
              "internalType": "address",
              "name": "payer",
              "type": "address"
            },
            {
              "internalType": "uint256",
              "name": "amount",
              "type": "uint256"
            },
            {
              "internalType": "bool",
              "name": "paid",
              "type": "bool"
            },
            {
              "internalType": "string",
              "name": "description",
              "type": "string"
            },
            {
              "internalType": "string",
              "name": "currencyCode",
              "type": "string"
            },
            {
              "internalType": "uint256",
              "name": "paymentTerms",
              "type": "uint256"
            },
            {
              "internalType": "uint256",
              "name": "creationDate",
              "type": "uint256"
            },
            {
              "internalType": "uint256",
              "name": "dueDate",
              "type": "uint256"
            },
            {
              "internalType": "uint256",
              "name": "paidDate",
              "type": "uint256"
            },
            {
              "internalType": "enum InvoiceNFT.InvoiceStatus",
              "name": "status",
              "type": "uint8"
            }
          ],
          "internalType": "struct InvoiceNFT.Invoice[]",
          "name": "payables",
          "type": "tuple[]"
        },
        {
          "components": [
            {
              "internalType": "address payable",
              "name": "payee",
              "type": "address"
            },
            {
              "internalType": "address",
              "name": "payer",
              "type": "address"
            },
            {
              "internalType": "uint256",
              "name": "amount",
              "type": "uint256"
            },
            {
              "internalType": "bool",
              "name": "paid",
              "type": "bool"
            },
            {
              "internalType": "string",
              "name": "description",
              "type": "string"
            },
            {
              "internalType": "string",
              "name": "currencyCode",
              "type": "string"
            },
            {
              "internalType": "uint256",
              "name": "paymentTerms",
              "type": "uint256"
            },
            {
              "internalType": "uint256",
              "name": "creationDate",
              "type": "uint256"
            },
            {
              "internalType": "uint256",
              "name": "dueDate",
              "type": "uint256"
            },
            {
              "internalType": "uint256",
              "name": "paidDate",
              "type": "uint256"
            },
            {
              "internalType": "enum InvoiceNFT.InvoiceStatus",
              "name": "status",
              "type": "uint8"
            }
          ],
          "internalType": "struct InvoiceNFT.Invoice[]",
          "name": "receivables",
          "type": "tuple[]"
        }
      ],
      "stateMutability": "view",
      "type": "function"
    },
    {
      "inputs": [
        {
          "internalType": "address",
          "name": "_wallet",
          "type": "address"
        }
      ],
      "name": "getReceivableInvoicesFor",
      "outputs": [
        {
          "components": [
            {
              "internalType": "address payable",
              "name": "payee",
              "type": "address"
            },
            {
              "internalType": "address",
              "name": "payer",
              "type": "address"
            },
            {
              "internalType": "uint256",
              "name": "amount",
              "type": "uint256"
            },
            {
              "internalType": "bool",
              "name": "paid",
              "type": "bool"
            },
            {
              "internalType": "string",
              "name": "description",
              "type": "string"
            },
            {
              "internalType": "string",
              "name": "currencyCode",
              "type": "string"
            },
            {
              "internalType": "uint256",
              "name": "paymentTerms",
              "type": "uint256"
            },
            {
              "internalType": "uint256",
              "name": "creationDate",
              "type": "uint256"
            },
            {
              "internalType": "uint256",
              "name": "dueDate",
              "type": "uint256"
            },
            {
              "internalType": "uint256",
              "name": "paidDate",
              "type": "uint256"
            },
            {
              "internalType": "enum InvoiceNFT.InvoiceStatus",
              "name": "status",
              "type": "uint8"
            }
          ],
          "internalType": "struct InvoiceNFT.Invoice[]",
          "name": "",
          "type": "tuple[]"
        }
      ],
      "stateMutability": "view",
      "type": "function"
    },
    {
      "inputs": [
        {
          "internalType": "uint256",
          "name": "",
          "type": "uint256"
        }
      ],
      "name": "invoices",
      "outputs": [
        {
          "internalType": "address payable",
          "name": "payee",
          "type": "address"
        },
        {
          "internalType": "address",
          "name": "payer",
          "type": "address"
        },
        {
          "internalType": "uint256",
          "name": "amount",
          "type": "uint256"
        },
        {
          "internalType": "bool",
          "name": "paid",
          "type": "bool"
        },
        {
          "internalType": "string",
          "name": "description",
          "type": "string"
        },
        {
          "internalType": "string",
          "name": "currencyCode",
          "type": "string"
        },
        {
          "internalType": "uint256",
          "name": "paymentTerms",
          "type": "uint256"
        },
        {
          "internalType": "uint256",
          "name": "creationDate",
          "type": "uint256"
        },
        {
          "internalType": "uint256",
          "name": "dueDate",
          "type": "uint256"
        },
        {
          "internalType": "uint256",
          "name": "paidDate",
          "type": "uint256"
        },
        {
          "internalType": "enum InvoiceNFT.InvoiceStatus",
          "name": "status",
          "type": "uint8"
        }
      ],
      "stateMutability": "view",
      "type": "function"
    },
    {
      "inputs": [
        {
          "internalType": "address",
          "name": "owner",
          "type": "address"
        },
        {
          "internalType": "address",
          "name": "operator",
          "type": "address"
        }
      ],
      "name": "isApprovedForAll",
      "outputs": [
        {
          "internalType": "bool",
          "name": "",
          "type": "bool"
        }
      ],
      "stateMutability": "view",
      "type": "function"
    },
    {
      "inputs": [
        {
          "internalType": "uint256",
          "name": "_invoiceId",
          "type": "uint256"
        }
      ],
      "name": "isInvoiceOverdue",
      "outputs": [
        {
          "internalType": "bool",
          "name": "",
          "type": "bool"
        }
      ],
      "stateMutability": "view",
      "type": "function"
    },
    {
      "inputs": [],
      "name": "name",
      "outputs": [
        {
          "internalType": "string",
          "name": "",
          "type": "string"
        }
      ],
      "stateMutability": "view",
      "type": "function"
    },
    {
      "inputs": [],
      "name": "owner",
      "outputs": [
        {
          "internalType": "address",
          "name": "",
          "type": "address"
        }
      ],
      "stateMutability": "view",
      "type": "function"
    },
    {
      "inputs": [
        {
          "internalType": "uint256",
          "name": "tokenId",
          "type": "uint256"
        }
      ],
      "name": "ownerOf",
      "outputs": [
        {
          "internalType": "address",
          "name": "",
          "type": "address"
        }
      ],
      "stateMutability": "view",
      "type": "function"
    },
    {
      "inputs": [
        {
          "internalType": "uint256",
          "name": "_invoiceId",
          "type": "uint256"
        }
      ],
      "name": "payInvoice",
      "outputs": [],
      "stateMutability": "payable",
      "type": "function"
    },
    {
      "inputs": [
        {
          "internalType": "uint256",
          "name": "_invoiceId",
          "type": "uint256"
        }
      ],
      "name": "rejectInvoice",
      "outputs": [],
      "stateMutability": "nonpayable",
      "type": "function"
    },
    {
      "inputs": [],
      "name": "renounceOwnership",
      "outputs": [],
      "stateMutability": "nonpayable",
      "type": "function"
    },
    {
      "inputs": [
        {
          "internalType": "address",
          "name": "from",
          "type": "address"
        },
        {
          "internalType": "address",
          "name": "to",
          "type": "address"
        },
        {
          "internalType": "uint256",
          "name": "tokenId",
          "type": "uint256"
        }
      ],
      "name": "safeTransferFrom",
      "outputs": [],
      "stateMutability": "nonpayable",
      "type": "function"
    },
    {
      "inputs": [
        {
          "internalType": "address",
          "name": "from",
          "type": "address"
        },
        {
          "internalType": "address",
          "name": "to",
          "type": "address"
        },
        {
          "internalType": "uint256",
          "name": "tokenId",
          "type": "uint256"
        },
        {
          "internalType": "bytes",
          "name": "data",
          "type": "bytes"
        }
      ],
      "name": "safeTransferFrom",
      "outputs": [],
      "stateMutability": "nonpayable",
      "type": "function"
    },
    {
      "inputs": [
        {
          "internalType": "address",
          "name": "operator",
          "type": "address"
        },
        {
          "internalType": "bool",
          "name": "approved",
          "type": "bool"
        }
      ],
      "name": "setApprovalForAll",
      "outputs": [],
      "stateMutability": "nonpayable",
      "type": "function"
    },
    {
      "inputs": [
        {
          "internalType": "bytes4",
          "name": "interfaceId",
          "type": "bytes4"
        }
      ],
      "name": "supportsInterface",
      "outputs": [
        {
          "internalType": "bool",
          "name": "",
          "type": "bool"
        }
      ],
      "stateMutability": "view",
      "type": "function"
    },
    {
      "inputs": [],
      "name": "symbol",
      "outputs": [
        {
          "internalType": "string",
          "name": "",
          "type": "string"
        }
      ],
      "stateMutability": "view",
      "type": "function"
    },
    {
      "inputs": [
        {
          "internalType": "uint256",
          "name": "_invoiceId",
          "type": "uint256"
        }
      ],
      "name": "tokenURI",
      "outputs": [
        {
          "internalType": "string",
          "name": "",
          "type": "string"
        }
      ],
      "stateMutability": "view",
      "type": "function"
    },
    {
      "inputs": [
        {
          "internalType": "address",
          "name": "from",
          "type": "address"
        },
        {
          "internalType": "address",
          "name": "to",
          "type": "address"
        },
        {
          "internalType": "uint256",
          "name": "tokenId",
          "type": "uint256"
        }
      ],
      "name": "transferFrom",
      "outputs": [],
      "stateMutability": "nonpayable",
      "type": "function"
    },
    {
      "inputs": [
        {
          "internalType": "address",
          "name": "_to",
          "type": "address"
        },
        {
          "internalType": "uint256",
          "name": "_invoiceId",
          "type": "uint256"
        }
      ],
      "name": "transferInvoice",
      "outputs": [],
      "stateMutability": "nonpayable",
      "type": "function"
    },
    {
      "inputs": [
        {
          "internalType": "address",
          "name": "newOwner",
          "type": "address"
        }
      ],
      "name": "transferOwnership",
      "outputs": [],
      "stateMutability": "nonpayable",
      "type": "function"
    }
  ],
  "transactionHash": "0x29adf8da1cb4fb20c664f2e901ac4059b0f4884fdc49a7d74a7686f1b065ac7c",
  "args": [
    "0x4C3fbd96888A2A6912eF2db5f1747A2C59b7821C"
  ],
  "numDeployments": 1,
  "solcInputHash": "64ba127044462b083dec46435b8e350b",
  "bytecode": "0x60806040523480156200001157600080fd5b50604051620032a2380380620032a283398101604081905262000034916200012b565b806040518060400160405280600a815260200169125b9d9bda58d953919560b21b8152506040518060400160405280600381526020016224a72b60e91b815250816000908162000085919062000202565b50600162000094828262000202565b5050506001600160a01b038116620000c657604051631e4fbdf760e01b81526000600482015260240160405180910390fd5b620000d181620000d9565b5050620002ce565b600680546001600160a01b038381166001600160a01b0319831681179093556040519116919082907f8be0079c531659141344cd1fd0a4f28419497f9722a3daafe3b4186f6b6457e090600090a35050565b6000602082840312156200013e57600080fd5b81516001600160a01b03811681146200015657600080fd5b9392505050565b634e487b7160e01b600052604160045260246000fd5b600181811c908216806200018857607f821691505b602082108103620001a957634e487b7160e01b600052602260045260246000fd5b50919050565b601f821115620001fd57600081815260208120601f850160051c81016020861015620001d85750805b601f850160051c820191505b81811015620001f957828155600101620001e4565b5050505b505050565b81516001600160401b038111156200021e576200021e6200015d565b62000236816200022f845462000173565b84620001af565b602080601f8311600181146200026e5760008415620002555750858301515b600019600386901b1c1916600185901b178555620001f9565b600085815260208120601f198616915b828110156200029f578886015182559484019460019091019084016200027e565b5085821015620002be5787850151600019600388901b60f8161c191681555b5050505050600190811b01905550565b612fc480620002de6000396000f3fe6080604052600436106101cd5760003560e01c80636c36c30c116100f7578063ac60a6cd11610095578063da9c273d11610064578063da9c273d1461059e578063e985e9c5146105be578063f2fde38b146105de578063f3802458146105fe57600080fd5b8063ac60a6cd146104f8578063b32413b71461050b578063b88d4fde1461052b578063c87b56dd1461054b57600080fd5b8063715018a6116100d1578063715018a6146104905780638da5cb5b146104a557806395d89b41146104c3578063a22cb465146104d857600080fd5b80636c36c30c146104235780636d9b2ace1461044357806370a082311461047057600080fd5b806323b872dd1161016f5780633a23cc0a1161013e5780633a23cc0a1461037f57806342842e0e146103ac5780634e6d1405146103cc5780636352211e1461040357600080fd5b806323b872dd146102e35780632a93509114610303578063346c728c14610331578063373db7f91461035f57600080fd5b8063095ea7b3116101ab578063095ea7b3146102615780630f9a715e14610283578063178c5b52146102a35780631b0cf087146102c357600080fd5b806301ffc9a7146101d257806306fdde0314610207578063081812fc14610229575b600080fd5b3480156101de57600080fd5b506101f26101ed3660046127a4565b61061e565b60405190151581526020015b60405180910390f35b34801561021357600080fd5b5061021c610670565b6040516101fe9190612807565b34801561023557600080fd5b5061024961024436600461281a565b610702565b6040516001600160a01b0390911681526020016101fe565b34801561026d57600080fd5b5061028161027c36600461284f565b61072b565b005b34801561028f57600080fd5b5061028161029e36600461281a565b61073a565b3480156102af57600080fd5b5061021c6102be36600461281a565b610840565b3480156102cf57600080fd5b506102816102de36600461281a565b61090e565b3480156102ef57600080fd5b506102816102fe366004612879565b610988565b34801561030f57600080fd5b5061032361031e3660046128b5565b610a13565b6040516101fe929190612a25565b34801561033d57600080fd5b5061035161034c366004612aff565b610dec565b6040519081526020016101fe565b34801561036b57600080fd5b506101f261037a36600461281a565b611098565b34801561038b57600080fd5b5061039f61039a36600461281a565b6110c5565b6040516101fe9190612b85565b3480156103b857600080fd5b506102816103c7366004612879565b6112fe565b3480156103d857600080fd5b506103ec6103e736600461281a565b611319565b6040516101fe9b9a99989796959493929190612b98565b34801561040f57600080fd5b5061024961041e36600461281a565b611493565b34801561042f57600080fd5b5061028161043e36600461284f565b61149e565b34801561044f57600080fd5b5061046361045e3660046128b5565b611509565b6040516101fe9190612c23565b34801561047c57600080fd5b5061035161048b3660046128b5565b61182d565b34801561049c57600080fd5b50610281611875565b3480156104b157600080fd5b506006546001600160a01b0316610249565b3480156104cf57600080fd5b5061021c611889565b3480156104e457600080fd5b506102816104f3366004612c36565b611898565b61028161050636600461281a565b6118a3565b34801561051757600080fd5b5061028161052636600461281a565b611a82565b34801561053757600080fd5b50610281610546366004612c72565b611b68565b34801561055757600080fd5b5061021c61056636600461281a565b506040805180820190915260208082527f68747470733a2f2f6d792d696e766f6963652d6d657461646174612e636f6d2f9082015290565b3480156105aa57600080fd5b506102816105b936600461281a565b611b80565b3480156105ca57600080fd5b506101f26105d9366004612cee565b611cbb565b3480156105ea57600080fd5b506102816105f93660046128b5565b611ce9565b34801561060a57600080fd5b506104636106193660046128b5565b611d27565b60006001600160e01b031982166380ac58cd60e01b148061064f57506001600160e01b03198216635b5e139f60e01b145b8061066a57506301ffc9a760e01b6001600160e01b03198316145b92915050565b60606000805461067f90612d21565b80601f01602080910402602001604051908101604052809291908181526020018280546106ab90612d21565b80156106f85780601f106106cd576101008083540402835291602001916106f8565b820191906000526020600020905b8154815290600101906020018083116106db57829003601f168201915b5050505050905090565b600061070d8261204a565b506000828152600460205260409020546001600160a01b031661066a565b610736828233612083565b5050565b600081815260086020526040902060018101546001600160a01b031633146107b95760405162461bcd60e51b815260206004820152602760248201527f4f6e6c79207468652070617965722063616e2072656a65637420746869732069604482015266373b37b4b1b29760c91b60648201526084015b60405180910390fd5b6000600a82015460ff1660048111156107d4576107d46128d0565b146107f15760405162461bcd60e51b81526004016107b090612d55565b6000816007015462093a806108069190612dac565b905080421161082b57600a820180546002919060ff19166001835b0217905550505050565b600a8201805460ff191660031790555b505050565b6060811580610850575060075482115b156108755750506040805180820190915260048152634e6f6e6560e01b602082015290565b6000828152600860205260409020600381015460ff16156108b257505060408051808201909152600481526314185a5960e21b6020820152919050565b80600801544211156108e35750506040805180820190915260078152664f76657264756560c81b6020820152919050565b505060408051808201909152600781526650656e64696e6760c81b6020820152919050565b50919050565b600081815260086020526040812090600a82015460ff166004811115610936576109366128d0565b146109535760405162461bcd60e51b81526004016107b090612d55565b6000816007015462093a806109689190612dac565b90508042111561083b57600a820180546003919060ff1916600183610821565b6001600160a01b0382166109b257604051633250574960e11b8152600060048201526024016107b0565b60006109bf838333612090565b9050836001600160a01b0316816001600160a01b031614610a0d576040516364283d7b60e01b81526001600160a01b03808616600483015260248201849052821660448201526064016107b0565b50505050565b6001600160a01b0381166000908152600960209081526040808320805482518185028101850190935280835260609485949093929190830182828015610a7857602002820191906000526020600020905b815481526020019060010190808311610a64575b505050505090506000815167ffffffffffffffff811115610a9b57610a9b612a53565b604051908082528060200260200182016040528015610ad457816020015b610ac1612710565b815260200190600190039081610ab95790505b5090506000825167ffffffffffffffff811115610af357610af3612a53565b604051908082528060200260200182016040528015610b2c57816020015b610b19612710565b815260200190600190039081610b115790505b50905060008060005b8551811015610ddb57600060086000888481518110610b5657610b56612dbf565b602090810291909101810151825281810192909252604090810160002081516101608101835281546001600160a01b03908116825260018301541693810193909352600281015491830191909152600381015460ff1615156060830152600481018054608084019190610bc890612d21565b80601f0160208091040260200160405190810160405280929190818152602001828054610bf490612d21565b8015610c415780601f10610c1657610100808354040283529160200191610c41565b820191906000526020600020905b815481529060010190602001808311610c2457829003601f168201915b50505050508152602001600582018054610c5a90612d21565b80601f0160208091040260200160405190810160405280929190818152602001828054610c8690612d21565b8015610cd35780601f10610ca857610100808354040283529160200191610cd3565b820191906000526020600020905b815481529060010190602001808311610cb657829003601f168201915b505050918352505060068201546020820152600782015460408201526008820154606082015260098201546080820152600a82015460a09091019060ff166004811115610d2257610d226128d0565b6004811115610d3357610d336128d0565b815250509050896001600160a01b031681602001516001600160a01b031603610d875780868581518110610d6957610d69612dbf565b60200260200101819052508380610d7f90612dd5565b945050610dc8565b80516001600160a01b03808c16911603610dc85780858481518110610dae57610dae612dbf565b60200260200101819052508280610dc490612dd5565b9350505b5080610dd381612dd5565b915050610b35565b509083528152909590945092505050565b60008160051480610dfd575081601e145b80610e08575081602d145b610e4c5760405162461bcd60e51b8152602060048201526015602482015274496e76616c6964207061796d656e74207465726d7360581b60448201526064016107b0565b336001600160a01b03871603610eb05760405162461bcd60e51b8152602060048201526024808201527f43616e6e6f742063726561746520616e20696e766f69636520746f20796f757260448201526339b2b63360e11b60648201526084016107b0565b600160076000828254610ec39190612dac565b9091555050600754610ed58782612189565b426000610ee58562015180612dee565b610eef9083612dac565b9050604051806101600160405280336001600160a01b031681526020018a6001600160a01b031681526020018981526020016000151581526020018881526020018781526020018681526020018381526020018281526020016000815260200160006004811115610f6257610f626128d0565b9052600084815260086020908152604091829020835181546001600160a01b03199081166001600160a01b0392831617835592850151600183018054909416911617909155908201516002820155606082015160038201805460ff191691151591909117905560808201516004820190610fdc9082612e4b565b5060a08201516005820190610ff19082612e4b565b5060c0820151600682015560e0820151600782015561010082015160088201556101208201516009820155610140820151600a8201805460ff19166001836004811115611040576110406128d0565b021790555050336000908152600960209081526040808320805460018181018355918552838520018890556001600160a01b038e16845290832080549182018155835291200184905550919250505095945050505050565b6000818152600860205260408120600381015460ff161580156110be5750806008015442115b9392505050565b6110cd612710565b6000821180156110df57506007548211155b6111205760405162461bcd60e51b8152602060048201526012602482015271125b9d985b1a59081a5b9d9bda58d948125160721b60448201526064016107b0565b60008281526008602090815260409182902082516101608101845281546001600160a01b03908116825260018301541692810192909252600281015492820192909252600382015460ff161515606082015260048201805491929160808401919061118a90612d21565b80601f01602080910402602001604051908101604052809291908181526020018280546111b690612d21565b80156112035780601f106111d857610100808354040283529160200191611203565b820191906000526020600020905b8154815290600101906020018083116111e657829003601f168201915b5050505050815260200160058201805461121c90612d21565b80601f016020809104026020016040519081016040528092919081815260200182805461124890612d21565b80156112955780601f1061126a57610100808354040283529160200191611295565b820191906000526020600020905b81548152906001019060200180831161127857829003601f168201915b505050918352505060068201546020820152600782015460408201526008820154606082015260098201546080820152600a82015460a09091019060ff1660048111156112e4576112e46128d0565b60048111156112f5576112f56128d0565b90525092915050565b61083b83838360405180602001604052806000815250611b68565b600860205260009081526040902080546001820154600283015460038401546004850180546001600160a01b03958616969490951694929360ff9092169261136090612d21565b80601f016020809104026020016040519081016040528092919081815260200182805461138c90612d21565b80156113d95780601f106113ae576101008083540402835291602001916113d9565b820191906000526020600020905b8154815290600101906020018083116113bc57829003601f168201915b5050505050908060050180546113ee90612d21565b80601f016020809104026020016040519081016040528092919081815260200182805461141a90612d21565b80156114675780601f1061143c57610100808354040283529160200191611467565b820191906000526020600020905b81548152906001019060200180831161144a57829003601f168201915b5050506006840154600785015460088601546009870154600a9097015495969295919450925060ff168b565b600061066a8261204a565b336114a882611493565b6001600160a01b0316146114fe5760405162461bcd60e51b815260206004820152601f60248201527f596f7520646f6e2774206f776e207468697320696e766f696365204e46542e0060448201526064016107b0565b6107363383836112fe565b6001600160a01b038116600090815260096020908152604080832080548251818502810185019093528083526060949383018282801561156857602002820191906000526020600020905b815481526020019060010190808311611554575b505050505090506000815167ffffffffffffffff81111561158b5761158b612a53565b6040519080825280602002602001820160405280156115c457816020015b6115b1612710565b8152602001906001900390816115a95790505b5090506000805b8351811015611823576000600860008684815181106115ec576115ec612dbf565b602090810291909101810151825281810192909252604090810160002081516101608101835281546001600160a01b03908116825260018301541693810193909352600281015491830191909152600381015460ff161515606083015260048101805460808401919061165e90612d21565b80601f016020809104026020016040519081016040528092919081815260200182805461168a90612d21565b80156116d75780601f106116ac576101008083540402835291602001916116d7565b820191906000526020600020905b8154815290600101906020018083116116ba57829003601f168201915b505050505081526020016005820180546116f090612d21565b80601f016020809104026020016040519081016040528092919081815260200182805461171c90612d21565b80156117695780601f1061173e57610100808354040283529160200191611769565b820191906000526020600020905b81548152906001019060200180831161174c57829003601f168201915b505050918352505060068201546020820152600782015460408201526008820154606082015260098201546080820152600a82015460a09091019060ff1660048111156117b8576117b86128d0565b60048111156117c9576117c96128d0565b90525080519091506001600160a01b0380891691160361181057808484815181106117f6576117f6612dbf565b6020026020010181905250828061180c90612dd5565b9350505b508061181b81612dd5565b9150506115cb565b5081529392505050565b60006001600160a01b038216611859576040516322718ad960e21b8152600060048201526024016107b0565b506001600160a01b031660009081526003602052604090205490565b61187d6121ee565b611887600061221b565b565b60606001805461067f90612d21565b61073633838361226d565b600081815260086020526040902060018101546001600160a01b031633146119195760405162461bcd60e51b8152602060048201526024808201527f4f6e6c79207468652070617965722063616e20706179207468697320696e766f60448201526334b1b29760e11b60648201526084016107b0565b600381015460ff16156119665760405162461bcd60e51b815260206004820152601560248201527424b73b37b4b1b29030b63932b0b23c903830b4b21760591b60448201526064016107b0565b80600201543410156119b25760405162461bcd60e51b815260206004820152601560248201527424b739bab33334b1b4b2b73a103830bcb6b2b73a1760591b60448201526064016107b0565b6001600a82015460ff1660048111156119cd576119cd6128d0565b14806119f157506003600a82015460ff1660048111156119ef576119ef6128d0565b145b611a355760405162461bcd60e51b815260206004820152601560248201527424b73b37b4b1b2903737ba1030b8383937bb32b21760591b60448201526064016107b0565b60038101805460ff1916600117905542600982015580546040516001600160a01b03909116903480156108fc02916000818181858888f1935050505015801561083b573d6000803e3d6000fd5b600081815260086020526040902060018101546001600160a01b03163314611afd5760405162461bcd60e51b815260206004820152602860248201527f4f6e6c79207468652070617965722063616e20617070726f766520746869732060448201526734b73b37b4b1b29760c11b60648201526084016107b0565b6000600a82015460ff166004811115611b1857611b186128d0565b14611b355760405162461bcd60e51b81526004016107b090612d55565b6000816007015462093a80611b4a9190612dac565b905080421161082b57600a820180546001919060ff19168280610821565b611b73848484610988565b610a0d338585858561230c565b600081815260086020526040902080546001600160a01b03163314611bf75760405162461bcd60e51b815260206004820152602760248201527f4f6e6c79207468652070617965652063616e2063616e63656c20746869732069604482015266373b37b4b1b29760c91b60648201526084016107b0565b6000600a82015460ff166004811115611c1257611c126128d0565b14611c765760405162461bcd60e51b815260206004820152602e60248201527f496e766f6963652063616e206f6e6c792062652063616e63656c6c656420696660448201526d1034ba13b9903832b73234b7339760911b60648201526084016107b0565b600a8101805460ff19166004179055611c8e82612437565b8054611ca3906001600160a01b031683612472565b6001810154610736906001600160a01b031683612472565b6001600160a01b03918216600090815260056020908152604080832093909416825291909152205460ff1690565b611cf16121ee565b6001600160a01b038116611d1b57604051631e4fbdf760e01b8152600060048201526024016107b0565b611d248161221b565b50565b6001600160a01b0381166000908152600960209081526040808320805482518185028101850190935280835260609493830182828015611d8657602002820191906000526020600020905b815481526020019060010190808311611d72575b505050505090506000815167ffffffffffffffff811115611da957611da9612a53565b604051908082528060200260200182016040528015611de257816020015b611dcf612710565b815260200190600190039081611dc75790505b5090506000805b835181101561182357600060086000868481518110611e0a57611e0a612dbf565b602090810291909101810151825281810192909252604090810160002081516101608101835281546001600160a01b03908116825260018301541693810193909352600281015491830191909152600381015460ff1615156060830152600481018054608084019190611e7c90612d21565b80601f0160208091040260200160405190810160405280929190818152602001828054611ea890612d21565b8015611ef55780601f10611eca57610100808354040283529160200191611ef5565b820191906000526020600020905b815481529060010190602001808311611ed857829003601f168201915b50505050508152602001600582018054611f0e90612d21565b80601f0160208091040260200160405190810160405280929190818152602001828054611f3a90612d21565b8015611f875780601f10611f5c57610100808354040283529160200191611f87565b820191906000526020600020905b815481529060010190602001808311611f6a57829003601f168201915b505050918352505060068201546020820152600782015460408201526008820154606082015260098201546080820152600a82015460a09091019060ff166004811115611fd657611fd66128d0565b6004811115611fe757611fe76128d0565b815250509050866001600160a01b031681602001516001600160a01b031603612037578084848151811061201d5761201d612dbf565b6020026020010181905250828061203390612dd5565b9350505b508061204281612dd5565b915050611de9565b6000818152600260205260408120546001600160a01b03168061066a57604051637e27328960e01b8152600481018490526024016107b0565b61083b8383836001612540565b6000828152600260205260408120546001600160a01b03908116908316156120bd576120bd818486612646565b6001600160a01b038116156120fb576120da600085600080612540565b6001600160a01b038116600090815260036020526040902080546000190190555b6001600160a01b0385161561212a576001600160a01b0385166000908152600360205260409020805460010190555b60008481526002602052604080822080546001600160a01b0319166001600160a01b0389811691821790925591518793918516917fddf252ad1be2c89b69c2b068fc378daa952ba7f163c4a11628f55a4df523b3ef91a4949350505050565b6001600160a01b0382166121b357604051633250574960e11b8152600060048201526024016107b0565b60006121c183836000612090565b90506001600160a01b0381161561083b576040516339e3563760e11b8152600060048201526024016107b0565b6006546001600160a01b031633146118875760405163118cdaa760e01b81523360048201526024016107b0565b600680546001600160a01b038381166001600160a01b0319831681179093556040519116919082907f8be0079c531659141344cd1fd0a4f28419497f9722a3daafe3b4186f6b6457e090600090a35050565b6001600160a01b03821661229f57604051630b61174360e31b81526001600160a01b03831660048201526024016107b0565b6001600160a01b03838116600081815260056020908152604080832094871680845294825291829020805460ff191686151590811790915591519182527f17307eab39ab6107e8899845ad3d59bd9653f200f220920489ca2b5937696c31910160405180910390a3505050565b6001600160a01b0383163b1561243057604051630a85bd0160e11b81526001600160a01b0384169063150b7a029061234e908890889087908790600401612f0b565b6020604051808303816000875af1925050508015612389575060408051601f3d908101601f1916820190925261238691810190612f48565b60015b6123f2573d8080156123b7576040519150601f19603f3d011682016040523d82523d6000602084013e6123bc565b606091505b5080516000036123ea57604051633250574960e11b81526001600160a01b03851660048201526024016107b0565b805181602001fd5b6001600160e01b03198116630a85bd0160e11b1461242e57604051633250574960e11b81526001600160a01b03851660048201526024016107b0565b505b5050505050565b60006124466000836000612090565b90506001600160a01b03811661073657604051637e27328960e01b8152600481018390526024016107b0565b6001600160a01b0382166000908152600960205260408120905b8154811015610a0d57828282815481106124a8576124a8612dbf565b90600052602060002001540361252e57815482906124c890600190612f65565b815481106124d8576124d8612dbf565b90600052602060002001548282815481106124f5576124f5612dbf565b90600052602060002001819055508180548061251357612513612f78565b60019003818190600052602060002001600090559055610a0d565b8061253881612dd5565b91505061248c565b808061255457506001600160a01b03821615155b156126165760006125648461204a565b90506001600160a01b038316158015906125905750826001600160a01b0316816001600160a01b031614155b80156125a357506125a18184611cbb565b155b156125cc5760405163a9fbf51f60e01b81526001600160a01b03841660048201526024016107b0565b81156126145783856001600160a01b0316826001600160a01b03167f8c5be1e5ebec7d5bd14f71427d1e84f3dd0314c0f7b2291e5b200ac8c7c3b92560405160405180910390a45b505b5050600090815260046020526040902080546001600160a01b0319166001600160a01b0392909216919091179055565b6126518383836126aa565b61083b576001600160a01b03831661267f57604051637e27328960e01b8152600481018290526024016107b0565b60405163177e802f60e01b81526001600160a01b0383166004820152602481018290526044016107b0565b60006001600160a01b038316158015906127085750826001600160a01b0316846001600160a01b031614806126e457506126e48484611cbb565b8061270857506000828152600460205260409020546001600160a01b038481169116145b949350505050565b60405180610160016040528060006001600160a01b0316815260200160006001600160a01b031681526020016000815260200160001515815260200160608152602001606081526020016000815260200160008152602001600081526020016000815260200160006004811115612789576127896128d0565b905290565b6001600160e01b031981168114611d2457600080fd5b6000602082840312156127b657600080fd5b81356110be8161278e565b6000815180845260005b818110156127e7576020818501810151868301820152016127cb565b506000602082860101526020601f19601f83011685010191505092915050565b6020815260006110be60208301846127c1565b60006020828403121561282c57600080fd5b5035919050565b80356001600160a01b038116811461284a57600080fd5b919050565b6000806040838503121561286257600080fd5b61286b83612833565b946020939093013593505050565b60008060006060848603121561288e57600080fd5b61289784612833565b92506128a560208501612833565b9150604084013590509250925092565b6000602082840312156128c757600080fd5b6110be82612833565b634e487b7160e01b600052602160045260246000fd5b6005811061290457634e487b7160e01b600052602160045260246000fd5b9052565b80516001600160a01b031682526000610160602083015161293460208601826001600160a01b03169052565b50604083015160408501526060830151612952606086018215159052565b50608083015181608086015261296a828601826127c1565b91505060a083015184820360a086015261298482826127c1565b91505060c083015160c085015260e083015160e0850152610100808401518186015250610120808401518186015250610140808401516129c6828701826128e6565b5090949350505050565b600081518084526020808501808196508360051b8101915082860160005b85811015612a18578284038952612a06848351612908565b988501989350908401906001016129ee565b5091979650505050505050565b604081526000612a3860408301856129d0565b8281036020840152612a4a81856129d0565b95945050505050565b634e487b7160e01b600052604160045260246000fd5b600067ffffffffffffffff80841115612a8457612a84612a53565b604051601f8501601f19908116603f01168101908282118183101715612aac57612aac612a53565b81604052809350858152868686011115612ac557600080fd5b858560208301376000602087830101525050509392505050565b600082601f830112612af057600080fd5b6110be83833560208501612a69565b600080600080600060a08688031215612b1757600080fd5b612b2086612833565b945060208601359350604086013567ffffffffffffffff80821115612b4457600080fd5b612b5089838a01612adf565b94506060880135915080821115612b6657600080fd5b50612b7388828901612adf565b95989497509295608001359392505050565b6020815260006110be6020830184612908565b6001600160a01b038c811682528b166020820152604081018a9052881515606082015261016060808201819052600090612bd48382018b6127c1565b905082810360a0840152612be8818a6127c1565b9150508660c08301528560e08301528461010083015283610120830152612c136101408301846128e6565b9c9b505050505050505050505050565b6020815260006110be60208301846129d0565b60008060408385031215612c4957600080fd5b612c5283612833565b915060208301358015158114612c6757600080fd5b809150509250929050565b60008060008060808587031215612c8857600080fd5b612c9185612833565b9350612c9f60208601612833565b925060408501359150606085013567ffffffffffffffff811115612cc257600080fd5b8501601f81018713612cd357600080fd5b612ce287823560208401612a69565b91505092959194509250565b60008060408385031215612d0157600080fd5b612d0a83612833565b9150612d1860208401612833565b90509250929050565b600181811c90821680612d3557607f821691505b60208210810361090857634e487b7160e01b600052602260045260246000fd5b60208082526021908201527f496e766f696365206973206e6f7420696e2070656e64696e67207374617475736040820152601760f91b606082015260800190565b634e487b7160e01b600052601160045260246000fd5b8082018082111561066a5761066a612d96565b634e487b7160e01b600052603260045260246000fd5b600060018201612de757612de7612d96565b5060010190565b808202811582820484141761066a5761066a612d96565b601f82111561083b57600081815260208120601f850160051c81016020861015612e2c5750805b601f850160051c820191505b8181101561242e57828155600101612e38565b815167ffffffffffffffff811115612e6557612e65612a53565b612e7981612e738454612d21565b84612e05565b602080601f831160018114612eae5760008415612e965750858301515b600019600386901b1c1916600185901b17855561242e565b600085815260208120601f198616915b82811015612edd57888601518255948401946001909101908401612ebe565b5085821015612efb5787850151600019600388901b60f8161c191681555b5050505050600190811b01905550565b6001600160a01b0385811682528416602082015260408101839052608060608201819052600090612f3e908301846127c1565b9695505050505050565b600060208284031215612f5a57600080fd5b81516110be8161278e565b8181038181111561066a5761066a612d96565b634e487b7160e01b600052603160045260246000fdfea264697066735822122027a4e4e1850e5f9942780d52c5130b8bc2343a282ed4beb17ff1fa41d8b4b3db64736f6c63430008140033",
  "devdoc": {
    "errors": {
      "ERC721IncorrectOwner(address,uint256,address)": [
        {
          "details": "Indicates an error related to the ownership over a particular token. Used in transfers.",
          "params": {
            "owner": "Address of the current owner of a token.",
            "sender": "Address whose tokens are being transferred.",
            "tokenId": "Identifier number of a token."
          }
        }
      ],
      "ERC721InsufficientApproval(address,uint256)": [
        {
          "details": "Indicates a failure with the `operator`s approval. Used in transfers.",
          "params": {
            "operator": "Address that may be allowed to operate on tokens without being their owner.",
            "tokenId": "Identifier number of a token."
          }
        }
      ],
      "ERC721InvalidApprover(address)": [
        {
          "details": "Indicates a failure with the `approver` of a token to be approved. Used in approvals.",
          "params": {
            "approver": "Address initiating an approval operation."
          }
        }
      ],
      "ERC721InvalidOperator(address)": [
        {
          "details": "Indicates a failure with the `operator` to be approved. Used in approvals.",
          "params": {
            "operator": "Address that may be allowed to operate on tokens without being their owner."
          }
        }
      ],
      "ERC721InvalidOwner(address)": [
        {
          "details": "Indicates that an address can't be an owner. For example, `address(0)` is a forbidden owner in ERC-20. Used in balance queries.",
          "params": {
            "owner": "Address of the current owner of a token."
          }
        }
      ],
      "ERC721InvalidReceiver(address)": [
        {
          "details": "Indicates a failure with the token `receiver`. Used in transfers.",
          "params": {
            "receiver": "Address to which tokens are being transferred."
          }
        }
      ],
      "ERC721InvalidSender(address)": [
        {
          "details": "Indicates a failure with the token `sender`. Used in transfers.",
          "params": {
            "sender": "Address whose tokens are being transferred."
          }
        }
      ],
      "ERC721NonexistentToken(uint256)": [
        {
          "details": "Indicates a `tokenId` whose `owner` is the zero address.",
          "params": {
            "tokenId": "Identifier number of a token."
          }
        }
      ],
      "OwnableInvalidOwner(address)": [
        {
          "details": "The owner is not a valid owner account. (eg. `address(0)`)"
        }
      ],
      "OwnableUnauthorizedAccount(address)": [
        {
          "details": "The caller account is not authorized to perform an operation."
        }
      ]
    },
    "events": {
      "Approval(address,address,uint256)": {
        "details": "Emitted when `owner` enables `approved` to manage the `tokenId` token."
      },
      "ApprovalForAll(address,address,bool)": {
        "details": "Emitted when `owner` enables or disables (`approved`) `operator` to manage all of its assets."
      },
      "Transfer(address,address,uint256)": {
        "details": "Emitted when `tokenId` token is transferred from `from` to `to`."
      }
    },
    "kind": "dev",
    "methods": {
      "approve(address,uint256)": {
        "details": "See {IERC721-approve}."
      },
      "balanceOf(address)": {
        "details": "See {IERC721-balanceOf}."
      },
      "getApproved(uint256)": {
        "details": "See {IERC721-getApproved}."
      },
      "isApprovedForAll(address,address)": {
        "details": "See {IERC721-isApprovedForAll}."
      },
      "name()": {
        "details": "See {IERC721Metadata-name}."
      },
      "owner()": {
        "details": "Returns the address of the current owner."
      },
      "ownerOf(uint256)": {
        "details": "See {IERC721-ownerOf}."
      },
      "renounceOwnership()": {
        "details": "Leaves the contract without owner. It will not be possible to call `onlyOwner` functions. Can only be called by the current owner. NOTE: Renouncing ownership will leave the contract without an owner, thereby disabling any functionality that is only available to the owner."
      },
      "safeTransferFrom(address,address,uint256)": {
        "details": "See {IERC721-safeTransferFrom}."
      },
      "safeTransferFrom(address,address,uint256,bytes)": {
        "details": "See {IERC721-safeTransferFrom}."
      },
      "setApprovalForAll(address,bool)": {
        "details": "See {IERC721-setApprovalForAll}."
      },
      "supportsInterface(bytes4)": {
        "details": "See {IERC165-supportsInterface}."
      },
      "symbol()": {
        "details": "See {IERC721Metadata-symbol}."
      },
      "transferFrom(address,address,uint256)": {
        "details": "See {IERC721-transferFrom}."
      },
      "transferOwnership(address)": {
        "details": "Transfers ownership of the contract to a new account (`newOwner`). Can only be called by the current owner."
      }
    },
    "version": 1
  },
  "userdoc": {
    "kind": "user",
    "methods": {},
    "version": 1
  },
  "storageLayout": {
    "storage": [
      {
        "astId": 317,
        "contract": "contracts/InvoiceNFT.sol:InvoiceNFT",
        "label": "_name",
        "offset": 0,
        "slot": "0",
        "type": "t_string_storage"
      },
      {
        "astId": 319,
        "contract": "contracts/InvoiceNFT.sol:InvoiceNFT",
        "label": "_symbol",
        "offset": 0,
        "slot": "1",
        "type": "t_string_storage"
      },
      {
        "astId": 323,
        "contract": "contracts/InvoiceNFT.sol:InvoiceNFT",
        "label": "_owners",
        "offset": 0,
        "slot": "2",
        "type": "t_mapping(t_uint256,t_address)"
      },
      {
        "astId": 327,
        "contract": "contracts/InvoiceNFT.sol:InvoiceNFT",
        "label": "_balances",
        "offset": 0,
        "slot": "3",
        "type": "t_mapping(t_address,t_uint256)"
      },
      {
        "astId": 331,
        "contract": "contracts/InvoiceNFT.sol:InvoiceNFT",
        "label": "_tokenApprovals",
        "offset": 0,
        "slot": "4",
        "type": "t_mapping(t_uint256,t_address)"
      },
      {
        "astId": 337,
        "contract": "contracts/InvoiceNFT.sol:InvoiceNFT",
        "label": "_operatorApprovals",
        "offset": 0,
        "slot": "5",
        "type": "t_mapping(t_address,t_mapping(t_address,t_bool))"
      },
      {
        "astId": 8,
        "contract": "contracts/InvoiceNFT.sol:InvoiceNFT",
        "label": "_owner",
        "offset": 0,
        "slot": "6",
        "type": "t_address"
      },
      {
        "astId": 5444,
        "contract": "contracts/InvoiceNFT.sol:InvoiceNFT",
        "label": "_invoiceIds",
        "offset": 0,
        "slot": "7",
        "type": "t_uint256"
      },
      {
        "astId": 5479,
        "contract": "contracts/InvoiceNFT.sol:InvoiceNFT",
        "label": "invoices",
        "offset": 0,
        "slot": "8",
        "type": "t_mapping(t_uint256,t_struct(Invoice)5474_storage)"
      },
      {
        "astId": 5484,
        "contract": "contracts/InvoiceNFT.sol:InvoiceNFT",
        "label": "walletInvoices",
        "offset": 0,
        "slot": "9",
        "type": "t_mapping(t_address,t_array(t_uint256)dyn_storage)"
      }
    ],
    "types": {
      "t_address": {
        "encoding": "inplace",
        "label": "address",
        "numberOfBytes": "20"
      },
      "t_address_payable": {
        "encoding": "inplace",
        "label": "address payable",
        "numberOfBytes": "20"
      },
      "t_array(t_uint256)dyn_storage": {
        "base": "t_uint256",
        "encoding": "dynamic_array",
        "label": "uint256[]",
        "numberOfBytes": "32"
      },
      "t_bool": {
        "encoding": "inplace",
        "label": "bool",
        "numberOfBytes": "1"
      },
      "t_enum(InvoiceStatus)5450": {
        "encoding": "inplace",
        "label": "enum InvoiceNFT.InvoiceStatus",
        "numberOfBytes": "1"
      },
      "t_mapping(t_address,t_array(t_uint256)dyn_storage)": {
        "encoding": "mapping",
        "key": "t_address",
        "label": "mapping(address => uint256[])",
        "numberOfBytes": "32",
        "value": "t_array(t_uint256)dyn_storage"
      },
      "t_mapping(t_address,t_bool)": {
        "encoding": "mapping",
        "key": "t_address",
        "label": "mapping(address => bool)",
        "numberOfBytes": "32",
        "value": "t_bool"
      },
      "t_mapping(t_address,t_mapping(t_address,t_bool))": {
        "encoding": "mapping",
        "key": "t_address",
        "label": "mapping(address => mapping(address => bool))",
        "numberOfBytes": "32",
        "value": "t_mapping(t_address,t_bool)"
      },
      "t_mapping(t_address,t_uint256)": {
        "encoding": "mapping",
        "key": "t_address",
        "label": "mapping(address => uint256)",
        "numberOfBytes": "32",
        "value": "t_uint256"
      },
      "t_mapping(t_uint256,t_address)": {
        "encoding": "mapping",
        "key": "t_uint256",
        "label": "mapping(uint256 => address)",
        "numberOfBytes": "32",
        "value": "t_address"
      },
      "t_mapping(t_uint256,t_struct(Invoice)5474_storage)": {
        "encoding": "mapping",
        "key": "t_uint256",
        "label": "mapping(uint256 => struct InvoiceNFT.Invoice)",
        "numberOfBytes": "32",
        "value": "t_struct(Invoice)5474_storage"
      },
      "t_string_storage": {
        "encoding": "bytes",
        "label": "string",
        "numberOfBytes": "32"
      },
      "t_struct(Invoice)5474_storage": {
        "encoding": "inplace",
        "label": "struct InvoiceNFT.Invoice",
        "members": [
          {
            "astId": 5452,
            "contract": "contracts/InvoiceNFT.sol:InvoiceNFT",
            "label": "payee",
            "offset": 0,
            "slot": "0",
            "type": "t_address_payable"
          },
          {
            "astId": 5454,
            "contract": "contracts/InvoiceNFT.sol:InvoiceNFT",
            "label": "payer",
            "offset": 0,
            "slot": "1",
            "type": "t_address"
          },
          {
            "astId": 5456,
            "contract": "contracts/InvoiceNFT.sol:InvoiceNFT",
            "label": "amount",
            "offset": 0,
            "slot": "2",
            "type": "t_uint256"
          },
          {
            "astId": 5458,
            "contract": "contracts/InvoiceNFT.sol:InvoiceNFT",
            "label": "paid",
            "offset": 0,
            "slot": "3",
            "type": "t_bool"
          },
          {
            "astId": 5460,
            "contract": "contracts/InvoiceNFT.sol:InvoiceNFT",
            "label": "description",
            "offset": 0,
            "slot": "4",
            "type": "t_string_storage"
          },
          {
            "astId": 5462,
            "contract": "contracts/InvoiceNFT.sol:InvoiceNFT",
            "label": "currencyCode",
            "offset": 0,
            "slot": "5",
            "type": "t_string_storage"
          },
          {
            "astId": 5464,
            "contract": "contracts/InvoiceNFT.sol:InvoiceNFT",
            "label": "paymentTerms",
            "offset": 0,
            "slot": "6",
            "type": "t_uint256"
          },
          {
            "astId": 5466,
            "contract": "contracts/InvoiceNFT.sol:InvoiceNFT",
            "label": "creationDate",
            "offset": 0,
            "slot": "7",
            "type": "t_uint256"
          },
          {
            "astId": 5468,
            "contract": "contracts/InvoiceNFT.sol:InvoiceNFT",
            "label": "dueDate",
            "offset": 0,
            "slot": "8",
            "type": "t_uint256"
          },
          {
            "astId": 5470,
            "contract": "contracts/InvoiceNFT.sol:InvoiceNFT",
            "label": "paidDate",
            "offset": 0,
            "slot": "9",
            "type": "t_uint256"
          },
          {
            "astId": 5473,
            "contract": "contracts/InvoiceNFT.sol:InvoiceNFT",
            "label": "status",
            "offset": 0,
            "slot": "10",
            "type": "t_enum(InvoiceStatus)5450"
          }
        ],
        "numberOfBytes": "352"
      },
      "t_uint256": {
        "encoding": "inplace",
        "label": "uint256",
        "numberOfBytes": "32"
      }
    }
  }
}